{
  "_format": "hh-sol-artifact-1",
  "contractName": "FantasyF1Contract",
  "sourceName": "contracts/F1Contract.sol",
  "abi": [
    {
      "inputs": [],
      "stateMutability": "nonpayable",
      "type": "constructor"
    },
    {
      "anonymous": false,
      "inputs": [
        {
          "indexed": true,
          "internalType": "address",
          "name": "owner",
          "type": "address"
        },
        {
          "indexed": true,
          "internalType": "address",
          "name": "approved",
          "type": "address"
        },
        {
          "indexed": true,
          "internalType": "uint256",
          "name": "tokenId",
          "type": "uint256"
        }
      ],
      "name": "Approval",
      "type": "event"
    },
    {
      "anonymous": false,
      "inputs": [
        {
          "indexed": true,
          "internalType": "address",
          "name": "owner",
          "type": "address"
        },
        {
          "indexed": true,
          "internalType": "address",
          "name": "operator",
          "type": "address"
        },
        {
          "indexed": false,
          "internalType": "bool",
          "name": "approved",
          "type": "bool"
        }
      ],
      "name": "ApprovalForAll",
      "type": "event"
    },
    {
      "anonymous": false,
      "inputs": [
        {
          "indexed": true,
          "internalType": "address",
          "name": "previousOwner",
          "type": "address"
        },
        {
          "indexed": true,
          "internalType": "address",
          "name": "newOwner",
          "type": "address"
        }
      ],
      "name": "OwnershipTransferred",
      "type": "event"
    },
    {
      "anonymous": false,
      "inputs": [
        {
          "indexed": true,
          "internalType": "address",
          "name": "from",
          "type": "address"
        },
        {
          "indexed": true,
          "internalType": "address",
          "name": "to",
          "type": "address"
        },
        {
          "indexed": true,
          "internalType": "uint256",
          "name": "tokenId",
          "type": "uint256"
        }
      ],
      "name": "Transfer",
      "type": "event"
    },
    {
      "inputs": [
        {
          "internalType": "address",
          "name": "to",
          "type": "address"
        },
        {
          "internalType": "uint256",
          "name": "tokenId",
          "type": "uint256"
        }
      ],
      "name": "approve",
      "outputs": [],
      "stateMutability": "nonpayable",
      "type": "function"
    },
    {
      "inputs": [
        {
          "internalType": "address",
          "name": "owner",
          "type": "address"
        }
      ],
      "name": "balanceOf",
      "outputs": [
        {
          "internalType": "uint256",
          "name": "",
          "type": "uint256"
        }
      ],
      "stateMutability": "view",
      "type": "function"
    },
    {
      "inputs": [
        {
          "internalType": "uint256",
          "name": "driver1",
          "type": "uint256"
        },
        {
          "internalType": "uint256",
          "name": "driver2",
          "type": "uint256"
        },
        {
          "internalType": "string",
          "name": "constructorteam",
          "type": "string"
        },
        {
          "internalType": "string",
          "name": "teamName",
          "type": "string"
        }
      ],
      "name": "createTeam",
      "outputs": [],
      "stateMutability": "nonpayable",
      "type": "function"
    },
    {
      "inputs": [
        {
          "internalType": "uint256",
          "name": "",
          "type": "uint256"
        }
      ],
      "name": "driverNames",
      "outputs": [
        {
          "internalType": "string",
          "name": "",
          "type": "string"
        }
      ],
      "stateMutability": "view",
      "type": "function"
    },
    {
      "inputs": [
        {
          "internalType": "uint256",
          "name": "tokenId",
          "type": "uint256"
        }
      ],
      "name": "getApproved",
      "outputs": [
        {
          "internalType": "address",
          "name": "",
          "type": "address"
        }
      ],
      "stateMutability": "view",
      "type": "function"
    },
    {
      "inputs": [],
      "name": "getLeaderboard",
      "outputs": [
        {
          "internalType": "string[3]",
          "name": "teamNames",
          "type": "string[3]"
        },
        {
          "internalType": "uint256[3]",
          "name": "scores",
          "type": "uint256[3]"
        }
      ],
      "stateMutability": "view",
      "type": "function"
    },
    {
      "inputs": [
        {
          "internalType": "address",
          "name": "owner",
          "type": "address"
        }
      ],
      "name": "getTeamByOwner",
      "outputs": [
        {
          "internalType": "uint256",
          "name": "driver1",
          "type": "uint256"
        },
        {
          "internalType": "uint256",
          "name": "driver2",
          "type": "uint256"
        },
        {
          "internalType": "string",
          "name": "constructorTeam",
          "type": "string"
        },
        {
          "internalType": "string",
          "name": "teamName",
          "type": "string"
        }
      ],
      "stateMutability": "view",
      "type": "function"
    },
    {
      "inputs": [],
      "name": "initialize",
      "outputs": [],
      "stateMutability": "nonpayable",
      "type": "function"
    },
    {
      "inputs": [
        {
          "internalType": "address",
          "name": "owner",
          "type": "address"
        },
        {
          "internalType": "address",
          "name": "operator",
          "type": "address"
        }
      ],
      "name": "isApprovedForAll",
      "outputs": [
        {
          "internalType": "bool",
          "name": "",
          "type": "bool"
        }
      ],
      "stateMutability": "view",
      "type": "function"
    },
    {
      "inputs": [],
      "name": "name",
      "outputs": [
        {
          "internalType": "string",
          "name": "",
          "type": "string"
        }
      ],
      "stateMutability": "view",
      "type": "function"
    },
    {
      "inputs": [],
      "name": "nextRaceId",
      "outputs": [
        {
          "internalType": "uint256",
          "name": "",
          "type": "uint256"
        }
      ],
      "stateMutability": "view",
      "type": "function"
    },
    {
      "inputs": [],
      "name": "owner",
      "outputs": [
        {
          "internalType": "address",
          "name": "",
          "type": "address"
        }
      ],
      "stateMutability": "view",
      "type": "function"
    },
    {
      "inputs": [
        {
          "internalType": "uint256",
          "name": "tokenId",
          "type": "uint256"
        }
      ],
      "name": "ownerOf",
      "outputs": [
        {
          "internalType": "address",
          "name": "",
          "type": "address"
        }
      ],
      "stateMutability": "view",
      "type": "function"
    },
    {
      "inputs": [
        {
          "internalType": "uint256",
          "name": "",
          "type": "uint256"
        }
      ],
      "name": "races",
      "outputs": [
        {
          "internalType": "string",
          "name": "raceName",
          "type": "string"
        },
        {
          "internalType": "bool",
          "name": "raceCompleted",
          "type": "bool"
        },
        {
          "internalType": "string",
          "name": "fastestPitstopTeam",
          "type": "string"
        }
      ],
      "stateMutability": "view",
      "type": "function"
    },
    {
      "inputs": [],
      "name": "renounceOwnership",
      "outputs": [],
      "stateMutability": "nonpayable",
      "type": "function"
    },
    {
      "inputs": [
        {
          "internalType": "address",
          "name": "from",
          "type": "address"
        },
        {
          "internalType": "address",
          "name": "to",
          "type": "address"
        },
        {
          "internalType": "uint256",
          "name": "tokenId",
          "type": "uint256"
        }
      ],
      "name": "safeTransferFrom",
      "outputs": [],
      "stateMutability": "nonpayable",
      "type": "function"
    },
    {
      "inputs": [
        {
          "internalType": "address",
          "name": "from",
          "type": "address"
        },
        {
          "internalType": "address",
          "name": "to",
          "type": "address"
        },
        {
          "internalType": "uint256",
          "name": "tokenId",
          "type": "uint256"
        },
        {
          "internalType": "bytes",
          "name": "data",
          "type": "bytes"
        }
      ],
      "name": "safeTransferFrom",
      "outputs": [],
      "stateMutability": "nonpayable",
      "type": "function"
    },
    {
      "inputs": [
        {
          "internalType": "address",
          "name": "operator",
          "type": "address"
        },
        {
          "internalType": "bool",
          "name": "approved",
          "type": "bool"
        }
      ],
      "name": "setApprovalForAll",
      "outputs": [],
      "stateMutability": "nonpayable",
      "type": "function"
    },
    {
      "inputs": [],
      "name": "startRace",
      "outputs": [],
      "stateMutability": "nonpayable",
      "type": "function"
    },
    {
      "inputs": [
        {
          "internalType": "bytes4",
          "name": "interfaceId",
          "type": "bytes4"
        }
      ],
      "name": "supportsInterface",
      "outputs": [
        {
          "internalType": "bool",
          "name": "",
          "type": "bool"
        }
      ],
      "stateMutability": "view",
      "type": "function"
    },
    {
      "inputs": [],
      "name": "symbol",
      "outputs": [
        {
          "internalType": "string",
          "name": "",
          "type": "string"
        }
      ],
      "stateMutability": "view",
      "type": "function"
    },
    {
      "inputs": [
        {
          "internalType": "uint256",
          "name": "",
          "type": "uint256"
        }
      ],
      "name": "teams",
      "outputs": [
        {
          "internalType": "uint256",
          "name": "driver1",
          "type": "uint256"
        },
        {
          "internalType": "uint256",
          "name": "driver2",
          "type": "uint256"
        },
        {
          "internalType": "string",
          "name": "constructorTeam",
          "type": "string"
        },
        {
          "internalType": "string",
          "name": "teamName",
          "type": "string"
        },
        {
          "internalType": "address",
          "name": "owner",
          "type": "address"
        },
        {
          "internalType": "uint256",
          "name": "score",
          "type": "uint256"
        }
      ],
      "stateMutability": "view",
      "type": "function"
    },
    {
      "inputs": [
        {
          "internalType": "address",
          "name": "",
          "type": "address"
        }
      ],
      "name": "teamsByOwner",
      "outputs": [
        {
          "internalType": "uint256",
          "name": "",
          "type": "uint256"
        }
      ],
      "stateMutability": "view",
      "type": "function"
    },
    {
      "inputs": [
        {
          "internalType": "uint256",
          "name": "index",
          "type": "uint256"
        }
      ],
      "name": "tokenByIndex",
      "outputs": [
        {
          "internalType": "uint256",
          "name": "",
          "type": "uint256"
        }
      ],
      "stateMutability": "view",
      "type": "function"
    },
    {
      "inputs": [
        {
          "internalType": "address",
          "name": "owner",
          "type": "address"
        },
        {
          "internalType": "uint256",
          "name": "index",
          "type": "uint256"
        }
      ],
      "name": "tokenOfOwnerByIndex",
      "outputs": [
        {
          "internalType": "uint256",
          "name": "",
          "type": "uint256"
        }
      ],
      "stateMutability": "view",
      "type": "function"
    },
    {
      "inputs": [
        {
          "internalType": "uint256",
          "name": "tokenId",
          "type": "uint256"
        }
      ],
      "name": "tokenURI",
      "outputs": [
        {
          "internalType": "string",
          "name": "",
          "type": "string"
        }
      ],
      "stateMutability": "view",
      "type": "function"
    },
    {
      "inputs": [],
      "name": "totalSupply",
      "outputs": [
        {
          "internalType": "uint256",
          "name": "",
          "type": "uint256"
        }
      ],
      "stateMutability": "view",
      "type": "function"
    },
    {
      "inputs": [],
      "name": "totalTeams",
      "outputs": [
        {
          "internalType": "uint256",
          "name": "",
          "type": "uint256"
        }
      ],
      "stateMutability": "view",
      "type": "function"
    },
    {
      "inputs": [
        {
          "internalType": "address",
          "name": "from",
          "type": "address"
        },
        {
          "internalType": "address",
          "name": "to",
          "type": "address"
        },
        {
          "internalType": "uint256",
          "name": "tokenId",
          "type": "uint256"
        }
      ],
      "name": "transferFrom",
      "outputs": [],
      "stateMutability": "nonpayable",
      "type": "function"
    },
    {
      "inputs": [
        {
          "internalType": "address",
          "name": "newOwner",
          "type": "address"
        }
      ],
      "name": "transferOwnership",
      "outputs": [],
      "stateMutability": "nonpayable",
      "type": "function"
    }
  ],
  "bytecode": "0x60806040526000600b556000600c553480156200001b57600080fd5b506040518060400160405280600d81526020016c46616e7461737946315465616d60981b81525060405180604001604052806003815260200162118c5560ea1b81525081600090816200006f91906200019c565b5060016200007e82826200019c565b5050506200009b62000095620000a160201b60201c565b620000a5565b62000268565b3390565b600a80546001600160a01b038381166001600160a01b0319831681179093556040519116919082907f8be0079c531659141344cd1fd0a4f28419497f9722a3daafe3b4186f6b6457e090600090a35050565b634e487b7160e01b600052604160045260246000fd5b600181811c908216806200012257607f821691505b6020821081036200014357634e487b7160e01b600052602260045260246000fd5b50919050565b601f8211156200019757600081815260208120601f850160051c81016020861015620001725750805b601f850160051c820191505b8181101562000193578281556001016200017e565b5050505b505050565b81516001600160401b03811115620001b857620001b8620000f7565b620001d081620001c984546200010d565b8462000149565b602080601f831160018114620002085760008415620001ef5750858301515b600019600386901b1c1916600185901b17855562000193565b600085815260208120601f198616915b82811015620002395788860151825594840194600190910190840162000218565b5085821015620002585787850151600019600388901b60f8161c191681555b5050505050600190811b01905550565b613cbf80620002786000396000f3fe608060405234801561001057600080fd5b50600436106101da5760003560e01c806370a0823111610104578063a857a3ed116100a2578063c87b56dd11610071578063c87b56dd14610406578063d9b8fd8f14610419578063e985e9c514610422578063f2fde38b1461045e57600080fd5b8063a857a3ed146103ad578063a96137be146103cd578063acb7b137146103e0578063b88d4fde146103f357600080fd5b80638129fc1c116100de5780638129fc1c146103795780638da5cb5b1461038157806395d89b4114610392578063a22cb4651461039a57600080fd5b806370a082311461033c578063715018a61461034f5780637bbc469e1461035757600080fd5b8063308484e71161017c5780636352211e1161014b5780636352211e14610302578063654c6daf146103155780636ad7ed471461031e5780636d763a6e1461032657600080fd5b8063308484e7146102945780633ed2b77a146102b757806342842e0e146102dc5780634f6ccce7146102ef57600080fd5b8063095ea7b3116101b8578063095ea7b31461024757806318160ddd1461025c57806323b872dd1461026e5780632f745c591461028157600080fd5b806301ffc9a7146101df57806306fdde0314610207578063081812fc1461021c575b600080fd5b6101f26101ed36600461345f565b610471565b60405190151581526020015b60405180910390f35b61020f61049c565b6040516101fe91906134cc565b61022f61022a3660046134df565b61052e565b6040516001600160a01b0390911681526020016101fe565b61025a610255366004613514565b610555565b005b6008545b6040519081526020016101fe565b61025a61027c36600461353e565b61066f565b61026061028f366004613514565b6106a0565b6102a76102a236600461357a565b610736565b6040516101fe9493929190613595565b6102ca6102c53660046134df565b6108a6565b6040516101fe969594939291906135d1565b61025a6102ea36600461353e565b6109f5565b6102606102fd3660046134df565b610a10565b61022f6103103660046134df565b610aa3565b610260600c5481565b61025a610b03565b61032e610d06565b6040516101fe929190613621565b61026061034a36600461357a565b610f78565b61025a610ffe565b61036a6103653660046134df565b611012565b6040516101fe9392919061369d565b61025a61114d565b600a546001600160a01b031661022f565b61020f6124d5565b61025a6103a83660046136d4565b6124e4565b6102606103bb36600461357a565b600f6020526000908152604090205481565b61020f6103db3660046134df565b6124f3565b61025a6103ee3660046137bc565b61258d565b61025a610401366004613833565b6126fa565b61020f6104143660046134df565b612732565b610260600b5481565b6101f26104303660046138a3565b6001600160a01b03918216600090815260056020908152604080832093909416825291909152205460ff1690565b61025a61046c36600461357a565b6127a6565b60006001600160e01b0319821663780e9d6360e01b148061049657506104968261281f565b92915050565b6060600080546104ab906138d6565b80601f01602080910402602001604051908101604052809291908181526020018280546104d7906138d6565b80156105245780601f106104f957610100808354040283529160200191610524565b820191906000526020600020905b81548152906001019060200180831161050757829003601f168201915b5050505050905090565b60006105398261286f565b506000908152600460205260409020546001600160a01b031690565b600061056082610aa3565b9050806001600160a01b0316836001600160a01b0316036105d25760405162461bcd60e51b815260206004820152602160248201527f4552433732313a20617070726f76616c20746f2063757272656e74206f776e656044820152603960f91b60648201526084015b60405180910390fd5b336001600160a01b03821614806105ee57506105ee8133610430565b6106605760405162461bcd60e51b815260206004820152603e60248201527f4552433732313a20617070726f76652063616c6c6572206973206e6f7420746f60448201527f6b656e206f776e6572206e6f7220617070726f76656420666f7220616c6c000060648201526084016105c9565b61066a83836128ce565b505050565b610679338261293c565b6106955760405162461bcd60e51b81526004016105c990613910565b61066a8383836129bb565b60006106ab83610f78565b821061070d5760405162461bcd60e51b815260206004820152602b60248201527f455243373231456e756d657261626c653a206f776e657220696e646578206f7560448201526a74206f6620626f756e647360a81b60648201526084016105c9565b506001600160a01b03919091166000908152600660209081526040808320938352929052205490565b6001600160a01b0381166000908152600f602090815260408083205480845260109092528220805460018201546002830180548695606095869591949093919290919060038501908290610789906138d6565b80601f01602080910402602001604051908101604052809291908181526020018280546107b5906138d6565b80156108025780601f106107d757610100808354040283529160200191610802565b820191906000526020600020905b8154815290600101906020018083116107e557829003601f168201915b50505050509150808054610815906138d6565b80601f0160208091040260200160405190810160405280929190818152602001828054610841906138d6565b801561088e5780601f106108635761010080835404028352916020019161088e565b820191906000526020600020905b81548152906001019060200180831161087157829003601f168201915b50505050509050955095509550955050509193509193565b601060205260009081526040902080546001820154600283018054929391926108ce906138d6565b80601f01602080910402602001604051908101604052809291908181526020018280546108fa906138d6565b80156109475780601f1061091c57610100808354040283529160200191610947565b820191906000526020600020905b81548152906001019060200180831161092a57829003601f168201915b50505050509080600301805461095c906138d6565b80601f0160208091040260200160405190810160405280929190818152602001828054610988906138d6565b80156109d55780601f106109aa576101008083540402835291602001916109d5565b820191906000526020600020905b8154815290600101906020018083116109b857829003601f168201915b50505050600483015460059093015491926001600160a01b031691905086565b61066a838383604051806020016040528060008152506126fa565b6000610a1b60085490565b8210610a7e5760405162461bcd60e51b815260206004820152602c60248201527f455243373231456e756d657261626c653a20676c6f62616c20696e646578206f60448201526b7574206f6620626f756e647360a01b60648201526084016105c9565b60088281548110610a9157610a9161395e565b90600052602060002001549050919050565b6000818152600260205260408120546001600160a01b0316806104965760405162461bcd60e51b8152602060048201526018602482015277115490cdcc8c4e881a5b9d985b1a59081d1bdad95b88125160421b60448201526064016105c9565b610b0b612b62565b6005600b541115610b545760405162461bcd60e51b8152602060048201526013602482015272105b1b081c9858d95cc818dbdb5c1b195d1959606a1b60448201526064016105c9565b600b546000908152600d60205260409020600281015460ff1615610bb35760405162461bcd60e51b8152602060048201526016602482015275149858d948185b1c9958591e4818dbdb5c1b195d195960521b60448201526064016105c9565b60005b600c54811015610cde57600081815260106020526040812054829190610bdc9085612bbc565b60008381526010602052604081206001015491925090610bfc9086612bbc565b90506000610c98838386896003018054610c15906138d6565b80601f0160208091040260200160405190810160405280929190818152602001828054610c41906138d6565b8015610c8e5780601f10610c6357610100808354040283529160200191610c8e565b820191906000526020600020905b815481529060010190602001808311610c7157829003601f168201915b5050505050612c2b565b905080601060008681526020019081526020016000206005016000828254610cc0919061398a565b92505081905550505050508080610cd69061399d565b915050610bb6565b5060028101805460ff19166001179055600b8054906000610cfe8361399d565b919050555050565b610d0e613404565b610d1661342b565b610d1e61342b565b610d2661342b565b60005b600c54811015610e5857600081815260106020526040812060050154905b6003811015610e4357848160038110610d6257610d6261395e565b6020020151821115610e315760025b81811115610dfb5785610d856001836139b6565b60038110610d9557610d9561395e565b6020020151868260038110610dac57610dac61395e565b602002015284610dbd6001836139b6565b60038110610dcd57610dcd61395e565b6020020151858260038110610de457610de461395e565b602002015280610df3816139c9565b915050610d71565b5081858260038110610e0f57610e0f61395e565b602002015282848260038110610e2757610e2761395e565b6020020152610e43565b80610e3b8161399d565b915050610d47565b50508080610e509061399d565b915050610d29565b5060005b6003811015610f715760106000838360038110610e7b57610e7b61395e565b602002015181526020019081526020016000206003018054610e9c906138d6565b80601f0160208091040260200160405190810160405280929190818152602001828054610ec8906138d6565b8015610f155780601f10610eea57610100808354040283529160200191610f15565b820191906000526020600020905b815481529060010190602001808311610ef857829003601f168201915b5050505050858260038110610f2c57610f2c61395e565b6020020152828160038110610f4357610f4361395e565b6020020151848260038110610f5a57610f5a61395e565b602002015280610f698161399d565b915050610e5c565b5050509091565b60006001600160a01b038216610fe25760405162461bcd60e51b815260206004820152602960248201527f4552433732313a2061646472657373207a65726f206973206e6f7420612076616044820152683634b21037bbb732b960b91b60648201526084016105c9565b506001600160a01b031660009081526003602052604090205490565b611006612b62565b6110106000612d1e565b565b600d6020526000908152604090208054819061102d906138d6565b80601f0160208091040260200160405190810160405280929190818152602001828054611059906138d6565b80156110a65780601f1061107b576101008083540402835291602001916110a6565b820191906000526020600020905b81548152906001019060200180831161108957829003601f168201915b5050506002840154600385018054949560ff9092169491935091506110ca906138d6565b80601f01602080910402602001604051908101604052809291908181526020018280546110f6906138d6565b80156111435780601f1061111857610100808354040283529160200191611143565b820191906000526020600020905b81548152906001019060200180831161112657829003601f168201915b5050505050905083565b611155612b62565b60408051808201909152600381526209ac2f60eb1b60208083019190915260008052600e90527fe710864318d4a32f37d6ce54cb3fadbef648dd12d8dbdf53973564d56b7f881c906111a79082613a2e565b5060408051808201909152600681526553657267696f60d01b6020808301919091526001600052600e90527fa7c5ba7114a813b50159add3a36832908dc83db71d0b9a24c2ad0f83be958207906111fe9082613a2e565b506040805180820190915260058152644c6577697360d81b6020808301919091526002600052600e90527f9adb202b1492743bc00c81d33cdc6423fa8c79109027eb6a845391e8fc1f0481906112549082613a2e565b506040805180820190915260088152674665726e616e646f60c01b6020808301919091526003600052600e90527fe0283e559c29e31ee7f56467acc9dd307779c843a883aeeb3bf5c6128c908144906112ad9082613a2e565b5060408051808201909152600681526547656f72676560d01b6020808301919091526004600052600e90527fa1d6913cd9e08c872be3e7525cca82e4fc0fc298a783f19022be725b19be685a906113049082613a2e565b506040805180820190915260068152654361726c6f7360d01b6020808301919091526005600052600e90527fb9bec7e2561f624fe753ff070f1599b306cbf59fafd4e8d5a8184a1ea1841bce9061135b9082613a2e565b506040805180820190915260058152644c616e646f60d81b6020808301919091526006600052600e90527f92b4482321f41ce3aa65f798bda23d0d12a60fc5f212868a548ddb00aa49de72906113b19082613a2e565b5060408051808201909152600780825266436861726c657360c81b602080840191909152600091909152600e90527f376529bb8a2d41b4a589a133407fc64f3212472dbd74744348be1098bf7ba08d9061140b9082613a2e565b5060408051808201909152600581526427b9b1b0b960d91b6020808301919091526008600052600e90527feab6bc3746954d8a0719de62c86ea908d362be2a58c781ada1046727253f9df2906114619082613a2e565b5060408051808201909152600681526550696572726560d01b6020808301919091526009600052600e90527f0d5ccdc17421fca5ca768ae29a27b8b2aa886c9e56e3482f9ba55d79d3a80664906114b89082613a2e565b506040805180820190915260058152644c616e636560d81b602080830191909152600a600052600e90527f0978afefdfd541f3bdffe34b0f19bc4ce1d7b3554d278a75e04686adf3223b399061150e9082613a2e565b506040805180820190915260048152635a686f7560e01b602080830191909152600b600052600e90527f7528327bfca11f705552fba9c3966003c5a3e73459dc289e7c8420997d319bee906115639082613a2e565b5060408051808201909152600581526425b2bb34b760d91b602080830191909152600c600052600e90527f47a2bf86628ea95bf13ae7e8527a13a64f52541d600ba060a013f0b8e72a5e2d906115b99082613a2e565b50604080518082019091526004815263082d8caf60e31b602080830191909152600d600052600e90527f9d0231707eb2041153c28e130d22114ee38b252cf17233585036af02278e41819061160e9082613a2e565b5060408051808201909152600781526622b9ba32b130b760c91b602080830191909152600e600081905290527fa6897c210c76a29b3d6bf757063b10a3faa77fe0657de0ee282493e99a18ed50906116669082613a2e565b5060408051808201909152600481526359756b6960e01b602080830191909152600f600052600e90527f60dd7f0393e3d3987afafbb50883ff45658a7a0c2d4460aa7a872d45c2ea2352906116bb9082613a2e565b5060408051808201909152600881526756616c747465726960c01b6020808301919091526010600052600e90527f33820a7b4c4724aafa212ecdbe06d3782aeae3dbe20fcf670d9acc29d388ea90906117149082613a2e565b506040805180820190915260048152634e696b6f60e01b6020808301919091526011600052600e90527fc0fe3ac15929d25201e62b8c796afb6745bcdd80b8be9470092f43535ba0b48d906117699082613a2e565b5060408051808201909152600681526511185b9a595b60d21b6020808301919091526012600052600e90527f3757bb026b72bf4f9cbbbf8f2bafe0ea3d356ae6d8f07ef005aafb99b4cbde40906117c09082613a2e565b506040805180820190915260058152642637b3b0b760d91b6020808301919091526013600052600e90527f23e995b0ea7a69c30e45fb21cd9d4e2adf7852a8949479c1017e50a0a5021d51906118169082613a2e565b506040805180820182526015815274082eae6e8e4c2d8d2c2dc408ee4c2dcc840a0e4d2f605b1b602080830191909152600b546000908152600d90915291909120906118629082613a2e565b50600b80546000908152600d60208181526040808420600201805460ff1916905580518082018252600781526626b1a630b932b760c91b81840152945484529190529020600301906118b49082613a2e565b50604080518082018252600681526553657267696f60d01b602080830191909152600b546000908152600d825283812081805260010190915291909120906118fc9082613a2e565b5060408051808201825260058152644c6577697360d81b602080830191909152600b546000908152600d825283812060018083520190915291909120906119439082613a2e565b50604080518082018252600381526209ac2f60eb1b602080830191909152600b546000908152600d82528381206002825260010190915291909120906119899082613a2e565b5060408051808201825260058152644c616e646f60d81b602080830191909152600b546000908152600d82528381206003825260010190915291909120906119d19082613a2e565b50604080518082018252600581526427b9b1b0b960d91b602080830191909152600b546000908152600d8252838120600482526001019091529190912090611a199082613a2e565b5060408051808201825260068152654361726c6f7360d01b602080830191909152600b546000908152600d8252838120600582526001019091529190912090611a629082613a2e565b50604080518082018252600581526425b2bb34b760d91b602080830191909152600b546000908152600d8252838120600682526001019091529190912090611aaa9082613a2e565b50604080518082018252600681526511185b9a595b60d21b602080830191909152600b546000908152600d8252838120600782526001019091529190912090611af39082613a2e565b506040805180820182526007815266436861726c657360c81b602080830191909152600b546000908152600d8252838120600882526001019091529190912090611b3d9082613a2e565b506040805180820182526004815263082d8caf60e31b602080830191909152600b546000908152600d8252838120600982526001019091529190912090611b849082613a2e565b50604080518082018252600681526547656f72676560d01b602080830191909152600b546000908152600d8252838120600a82526001019091529190912090611bcd9082613a2e565b50604080518082018252600481526359756b6960e01b602080830191909152600b80546000908152600d835284812091815260019091019091529190912090611c169082613a2e565b5060408051808201825260088152674665726e616e646f60c01b602080830191909152600b546000908152600d8252838120600c82526001019091529190912090611c619082613a2e565b5060408051808201825260058152644c616e636560d81b602080830191909152600b546000908152600d8083528482209082526001019091529190912090611ca99082613a2e565b5060408051808201825260058152644761736c7960d81b602080830191909152600b546000908152600d8252838120600e82526001019091529190912090611cf19082613a2e565b50604080518082018252600781526622b9ba32b130b760c91b602080830191909152600b546000908152600d8252838120600f82526001019091529190912090611d3b9082613a2e565b5060408051808201825260048152634e696b6f60e01b602080830191909152600b546000908152600d8252838120601082526001019091529190912090611d829082613a2e565b5060408051808201825260058152642637b3b0b760d91b602080830191909152600b546000908152600d8252838120601182526001019091529190912090611dca9082613a2e565b5060408051808201825260048152635a686f7560e01b602080830191909152600b546000908152600d8252838120601282526001019091529190912090611e119082613a2e565b506040805180820182526006815265426f7474617360d01b602080830191909152600b546000908152600d8252838120601382526001019091529190912090611e5a9082613a2e565b50600b8054906000611e6b8361399d565b90915550506040805180820182526012815271084c2d0e4c2d2dc408ee4c2dcc840a0e4d2f60731b602080830191909152600b546000908152600d9091529190912090611eb89082613a2e565b50600b80546000908152600d60208181526040808420600201805460ff1916905580518082018252600f81526e5265642042756c6c20526163696e6760881b8184015294548452919052902060030190611f129082613a2e565b50604080518082018252600681526553657267696f60d01b602080830191909152600b546000908152600d82528381208180526001019091529190912090611f5a9082613a2e565b50604080518082018252600581526427b9b1b0b960d91b602080830191909152600b546000908152600d82528381206001808352019091529190912090611fa19082613a2e565b50604080518082018252600381526209ac2f60eb1b602080830191909152600b546000908152600d8252838120600282526001019091529190912090611fe79082613a2e565b5060408051808201825260058152644c616e646f60d81b602080830191909152600b546000908152600d825283812060038252600101909152919091209061202f9082613a2e565b5060408051808201825260058152644c6577697360d81b602080830191909152600b546000908152600d82528381206004825260010190915291909120906120779082613a2e565b5060408051808201825260068152654361726c6f7360d01b602080830191909152600b546000908152600d82528381206005825260010190915291909120906120c09082613a2e565b50604080518082018252600581526425b2bb34b760d91b602080830191909152600b546000908152600d82528381206006825260010190915291909120906121089082613a2e565b50604080518082018252600681526511185b9a595b60d21b602080830191909152600b546000908152600d82528381206007825260010190915291909120906121519082613a2e565b506040805180820182526007815266436861726c657360c81b602080830191909152600b546000908152600d825283812060088252600101909152919091209061219b9082613a2e565b506040805180820182526004815263082d8caf60e31b602080830191909152600b546000908152600d82528381206009825260010190915291909120906121e29082613a2e565b50604080518082018252600681526547656f72676560d01b602080830191909152600b546000908152600d8252838120600a8252600101909152919091209061222b9082613a2e565b50604080518082018252600481526359756b6960e01b602080830191909152600b80546000908152600d8352848120918152600190910190915291909120906122749082613a2e565b5060408051808201825260088152674665726e616e646f60c01b602080830191909152600b546000908152600d8252838120600c825260010190915291909120906122bf9082613a2e565b5060408051808201825260058152644c616e636560d81b602080830191909152600b546000908152600d80835284822090825260010190915291909120906123079082613a2e565b5060408051808201825260058152644761736c7960d81b602080830191909152600b546000908152600d8252838120600e8252600101909152919091209061234f9082613a2e565b50604080518082018252600781526622b9ba32b130b760c91b602080830191909152600b546000908152600d8252838120600f825260010190915291909120906123999082613a2e565b5060408051808201825260048152634e696b6f60e01b602080830191909152600b546000908152600d82528381206010825260010190915291909120906123e09082613a2e565b5060408051808201825260058152642637b3b0b760d91b602080830191909152600b546000908152600d82528381206011825260010190915291909120906124289082613a2e565b5060408051808201825260048152635a686f7560e01b602080830191909152600b546000908152600d825283812060128252600101909152919091209061246f9082613a2e565b506040805180820182526006815265426f7474617360d01b602080830191909152600b546000908152600d82528381206013825260010190915291909120906124b89082613a2e565b50600b80549060006124c98361399d565b90915550506000600b55565b6060600180546104ab906138d6565b6124ef338383612d70565b5050565b600e602052600090815260409020805461250c906138d6565b80601f0160208091040260200160405190810160405280929190818152602001828054612538906138d6565b80156125855780601f1061255a57610100808354040283529160200191612585565b820191906000526020600020905b81548152906001019060200180831161256857829003601f168201915b505050505081565b612710600c54106125d85760405162461bcd60e51b815260206004820152601560248201527413585e1a5b5d5b481d19585b5cc81c995858da1959605a1b60448201526064016105c9565b8284036126275760405162461bcd60e51b815260206004820152601e60248201527f426f74682064726976657273206d75737420626520646966666572656e74000060448201526064016105c9565b6040805160c081018252858152602080820186815282840186815260608401869052336080850152600060a08501819052600c5481526010909352939091208251815590516001820155915190919060028201906126859082613a2e565b506060820151600382019061269a9082613a2e565b5060808201516004820180546001600160a01b0319166001600160a01b0390921691909117905560a090910151600590910155600c8054336000908152600f602052604081208290559091906126ef8361399d565b919050555050505050565b612704338361293c565b6127205760405162461bcd60e51b81526004016105c990613910565b61272c84848484612e3e565b50505050565b606061273d8261286f565b600061275460408051602081019091526000815290565b90506000815111612774576040518060200160405280600081525061279f565b8061277e84612e71565b60405160200161278f929190613aee565b6040516020818303038152906040525b9392505050565b6127ae612b62565b6001600160a01b0381166128135760405162461bcd60e51b815260206004820152602660248201527f4f776e61626c653a206e6577206f776e657220697320746865207a65726f206160448201526564647265737360d01b60648201526084016105c9565b61281c81612d1e565b50565b60006001600160e01b031982166380ac58cd60e01b148061285057506001600160e01b03198216635b5e139f60e01b145b8061049657506301ffc9a760e01b6001600160e01b0319831614610496565b6000818152600260205260409020546001600160a01b031661281c5760405162461bcd60e51b8152602060048201526018602482015277115490cdcc8c4e881a5b9d985b1a59081d1bdad95b88125160421b60448201526064016105c9565b600081815260046020526040902080546001600160a01b0319166001600160a01b038416908117909155819061290382610aa3565b6001600160a01b03167f8c5be1e5ebec7d5bd14f71427d1e84f3dd0314c0f7b2291e5b200ac8c7c3b92560405160405180910390a45050565b60008061294883610aa3565b9050806001600160a01b0316846001600160a01b0316148061298f57506001600160a01b0380821660009081526005602090815260408083209388168352929052205460ff165b806129b35750836001600160a01b03166129a88461052e565b6001600160a01b0316145b949350505050565b826001600160a01b03166129ce82610aa3565b6001600160a01b031614612a325760405162461bcd60e51b815260206004820152602560248201527f4552433732313a207472616e736665722066726f6d20696e636f72726563742060448201526437bbb732b960d91b60648201526084016105c9565b6001600160a01b038216612a945760405162461bcd60e51b8152602060048201526024808201527f4552433732313a207472616e7366657220746f20746865207a65726f206164646044820152637265737360e01b60648201526084016105c9565b612a9f838383612f72565b612aaa6000826128ce565b6001600160a01b0383166000908152600360205260408120805460019290612ad39084906139b6565b90915550506001600160a01b0382166000908152600360205260408120805460019290612b0190849061398a565b909155505060008181526002602052604080822080546001600160a01b0319166001600160a01b0386811691821790925591518493918716917fddf252ad1be2c89b69c2b068fc378daa952ba7f163c4a11628f55a4df523b3ef91a4505050565b600a546001600160a01b031633146110105760405162461bcd60e51b815260206004820181905260248201527f4f776e61626c653a2063616c6c6572206973206e6f7420746865206f776e657260448201526064016105c9565b6000805b6014811015612c2157612bd28461302a565b80519060200120836001016000838152602001908152602001600020604051612bfb9190613b1d565b604051809103902003612c0f579050610496565b80612c198161399d565b915050612bc0565b5060009392505050565b600080612c37856130cc565b612c40876130cc565b612c4a919061398a565b60008581526010602052604090206002018054919250612d0291612c6d906138d6565b80601f0160208091040260200160405190810160405280929190818152602001828054612c99906138d6565b8015612ce65780601f10612cbb57610100808354040283529160200191612ce6565b820191906000526020600020905b815481529060010190602001808311612cc957829003601f168201915b5050505050848051602091820120825192909101919091201490565b15612d1557612d12600a8261398a565b90505b95945050505050565b600a80546001600160a01b038381166001600160a01b0319831681179093556040519116919082907f8be0079c531659141344cd1fd0a4f28419497f9722a3daafe3b4186f6b6457e090600090a35050565b816001600160a01b0316836001600160a01b031603612dd15760405162461bcd60e51b815260206004820152601960248201527f4552433732313a20617070726f766520746f2063616c6c65720000000000000060448201526064016105c9565b6001600160a01b03838116600081815260056020908152604080832094871680845294825291829020805460ff191686151590811790915591519182527f17307eab39ab6107e8899845ad3d59bd9653f200f220920489ca2b5937696c31910160405180910390a3505050565b612e498484846129bb565b612e5584848484613176565b61272c5760405162461bcd60e51b81526004016105c990613b93565b606081600003612e985750506040805180820190915260018152600360fc1b602082015290565b8160005b8115612ec25780612eac8161399d565b9150612ebb9050600a83613bfb565b9150612e9c565b60008167ffffffffffffffff811115612edd57612edd613710565b6040519080825280601f01601f191660200182016040528015612f07576020820181803683370190505b5090505b84156129b357612f1c6001836139b6565b9150612f29600a86613c0f565b612f3490603061398a565b60f81b818381518110612f4957612f4961395e565b60200101906001600160f81b031916908160001a905350612f6b600a86613bfb565b9450612f0b565b6001600160a01b038316612fcd57612fc881600880546000838152600960205260408120829055600182018355919091527ff3f7a9fe364faab93b216da50a3214154f22a0a2b415b23a84c8169e8b636ee30155565b612ff0565b816001600160a01b0316836001600160a01b031614612ff057612ff08382613274565b6001600160a01b0382166130075761066a81613311565b826001600160a01b0316826001600160a01b03161461066a5761066a82826133c0565b6000818152600e60205260409020805460609190613047906138d6565b80601f0160208091040260200160405190810160405280929190818152602001828054613073906138d6565b80156130c05780601f10613095576101008083540402835291602001916130c0565b820191906000526020600020905b8154815290600101906020018083116130a357829003601f168201915b50505050509050919050565b6000816000036130de57506019919050565b816001036130ee57506012919050565b816002036130fe5750600f919050565b8160030361310e5750600c919050565b8160040361311e5750600a919050565b8160050361312e57506008919050565b8160060361313e57506006919050565b8160070361314e57506004919050565b8160080361315e57506002919050565b8160090361316e57506001919050565b506000919050565b60006001600160a01b0384163b1561326c57604051630a85bd0160e11b81526001600160a01b0385169063150b7a02906131ba903390899088908890600401613c23565b6020604051808303816000875af19250505080156131f5575060408051601f3d908101601f191682019092526131f291810190613c56565b60015b613252573d808015613223576040519150601f19603f3d011682016040523d82523d6000602084013e613228565b606091505b50805160000361324a5760405162461bcd60e51b81526004016105c990613b93565b805181602001fd5b6001600160e01b031916630a85bd0160e11b1490506129b3565b5060016129b3565b6000600161328184610f78565b61328b91906139b6565b6000838152600760205260409020549091508082146132de576001600160a01b03841660009081526006602090815260408083208584528252808320548484528184208190558352600790915290208190555b5060009182526007602090815260408084208490556001600160a01b039094168352600681528383209183525290812055565b600854600090613323906001906139b6565b6000838152600960205260408120546008805493945090928490811061334b5761334b61395e565b90600052602060002001549050806008838154811061336c5761336c61395e565b60009182526020808320909101929092558281526009909152604080822084905585825281205560088054806133a4576133a4613c73565b6001900381819060005260206000200160009055905550505050565b60006133cb83610f78565b6001600160a01b039093166000908152600660209081526040808320868452825280832085905593825260079052919091209190915550565b60405180606001604052806003905b60608152602001906001900390816134135790505090565b60405180606001604052806003906020820280368337509192915050565b6001600160e01b03198116811461281c57600080fd5b60006020828403121561347157600080fd5b813561279f81613449565b60005b8381101561349757818101518382015260200161347f565b50506000910152565b600081518084526134b881602086016020860161347c565b601f01601f19169290920160200192915050565b60208152600061279f60208301846134a0565b6000602082840312156134f157600080fd5b5035919050565b80356001600160a01b038116811461350f57600080fd5b919050565b6000806040838503121561352757600080fd5b613530836134f8565b946020939093013593505050565b60008060006060848603121561355357600080fd5b61355c846134f8565b925061356a602085016134f8565b9150604084013590509250925092565b60006020828403121561358c57600080fd5b61279f826134f8565b8481528360208201526080604082015260006135b460808301856134a0565b82810360608401526135c681856134a0565b979650505050505050565b86815285602082015260c0604082015260006135f060c08301876134a0565b828103606084015261360281876134a0565b6001600160a01b03959095166080840152505060a00152949350505050565b608080825260009060e0830190830185835b600381101561366557607f198685030183526136508483516134a0565b93506020928301929190910190600101613633565b5050508091505060208083018460005b600381101561369257815183529183019190830190600101613675565b505050509392505050565b6060815260006136b060608301866134a0565b841515602084015282810360408401526136ca81856134a0565b9695505050505050565b600080604083850312156136e757600080fd5b6136f0836134f8565b91506020830135801515811461370557600080fd5b809150509250929050565b634e487b7160e01b600052604160045260246000fd5b600067ffffffffffffffff8084111561374157613741613710565b604051601f8501601f19908116603f0116810190828211818310171561376957613769613710565b8160405280935085815286868601111561378257600080fd5b858560208301376000602087830101525050509392505050565b600082601f8301126137ad57600080fd5b61279f83833560208501613726565b600080600080608085870312156137d257600080fd5b8435935060208501359250604085013567ffffffffffffffff808211156137f857600080fd5b6138048883890161379c565b9350606087013591508082111561381a57600080fd5b506138278782880161379c565b91505092959194509250565b6000806000806080858703121561384957600080fd5b613852856134f8565b9350613860602086016134f8565b925060408501359150606085013567ffffffffffffffff81111561388357600080fd5b8501601f8101871361389457600080fd5b61382787823560208401613726565b600080604083850312156138b657600080fd5b6138bf836134f8565b91506138cd602084016134f8565b90509250929050565b600181811c908216806138ea57607f821691505b60208210810361390a57634e487b7160e01b600052602260045260246000fd5b50919050565b6020808252602e908201527f4552433732313a2063616c6c6572206973206e6f7420746f6b656e206f776e6560408201526d1c881b9bdc88185c1c1c9bdd995960921b606082015260800190565b634e487b7160e01b600052603260045260246000fd5b634e487b7160e01b600052601160045260246000fd5b8082018082111561049657610496613974565b6000600182016139af576139af613974565b5060010190565b8181038181111561049657610496613974565b6000816139d8576139d8613974565b506000190190565b601f82111561066a57600081815260208120601f850160051c81016020861015613a075750805b601f850160051c820191505b81811015613a2657828155600101613a13565b505050505050565b815167ffffffffffffffff811115613a4857613a48613710565b613a5c81613a5684546138d6565b846139e0565b602080601f831160018114613a915760008415613a795750858301515b600019600386901b1c1916600185901b178555613a26565b600085815260208120601f198616915b82811015613ac057888601518255948401946001909101908401613aa1565b5085821015613ade5787850151600019600388901b60f8161c191681555b5050505050600190811b01905550565b60008351613b0081846020880161347c565b835190830190613b1481836020880161347c565b01949350505050565b6000808354613b2b816138d6565b60018281168015613b435760018114613b5857613b87565b60ff1984168752821515830287019450613b87565b8760005260208060002060005b85811015613b7e5781548a820152908401908201613b65565b50505082870194505b50929695505050505050565b60208082526032908201527f4552433732313a207472616e7366657220746f206e6f6e20455243373231526560408201527131b2b4bb32b91034b6b83632b6b2b73a32b960711b606082015260800190565b634e487b7160e01b600052601260045260246000fd5b600082613c0a57613c0a613be5565b500490565b600082613c1e57613c1e613be5565b500690565b6001600160a01b03858116825284166020820152604081018390526080606082018190526000906136ca908301846134a0565b600060208284031215613c6857600080fd5b815161279f81613449565b634e487b7160e01b600052603160045260246000fdfea2646970667358221220f06c384f3af194de8e80dc8279ae80b1df182dffada480a6f9701b636153fcb864736f6c63430008110033",
  "linkReferences": {},
  "deployedLinkReferences": {}
}