{
  "contractName": "FantasyF1Contract",
  "abi": [
    {
      "inputs": [],
      "stateMutability": "nonpayable",
      "type": "constructor"
    },
    {
      "inputs": [],
      "name": "ERC721EnumerableForbiddenBatchMint",
      "type": "error"
    },
    {
      "inputs": [
        {
          "internalType": "address",
          "name": "sender",
          "type": "address"
        },
        {
          "internalType": "uint256",
          "name": "tokenId",
          "type": "uint256"
        },
        {
          "internalType": "address",
          "name": "owner",
          "type": "address"
        }
      ],
      "name": "ERC721IncorrectOwner",
      "type": "error"
    },
    {
      "inputs": [
        {
          "internalType": "address",
          "name": "operator",
          "type": "address"
        },
        {
          "internalType": "uint256",
          "name": "tokenId",
          "type": "uint256"
        }
      ],
      "name": "ERC721InsufficientApproval",
      "type": "error"
    },
    {
      "inputs": [
        {
          "internalType": "address",
          "name": "approver",
          "type": "address"
        }
      ],
      "name": "ERC721InvalidApprover",
      "type": "error"
    },
    {
      "inputs": [
        {
          "internalType": "address",
          "name": "operator",
          "type": "address"
        }
      ],
      "name": "ERC721InvalidOperator",
      "type": "error"
    },
    {
      "inputs": [
        {
          "internalType": "address",
          "name": "owner",
          "type": "address"
        }
      ],
      "name": "ERC721InvalidOwner",
      "type": "error"
    },
    {
      "inputs": [
        {
          "internalType": "address",
          "name": "receiver",
          "type": "address"
        }
      ],
      "name": "ERC721InvalidReceiver",
      "type": "error"
    },
    {
      "inputs": [
        {
          "internalType": "address",
          "name": "sender",
          "type": "address"
        }
      ],
      "name": "ERC721InvalidSender",
      "type": "error"
    },
    {
      "inputs": [
        {
          "internalType": "uint256",
          "name": "tokenId",
          "type": "uint256"
        }
      ],
      "name": "ERC721NonexistentToken",
      "type": "error"
    },
    {
      "inputs": [
        {
          "internalType": "address",
          "name": "owner",
          "type": "address"
        },
        {
          "internalType": "uint256",
          "name": "index",
          "type": "uint256"
        }
      ],
      "name": "ERC721OutOfBoundsIndex",
      "type": "error"
    },
    {
      "inputs": [
        {
          "internalType": "address",
          "name": "owner",
          "type": "address"
        }
      ],
      "name": "OwnableInvalidOwner",
      "type": "error"
    },
    {
      "inputs": [
        {
          "internalType": "address",
          "name": "account",
          "type": "address"
        }
      ],
      "name": "OwnableUnauthorizedAccount",
      "type": "error"
    },
    {
      "anonymous": false,
      "inputs": [
        {
          "indexed": true,
          "internalType": "address",
          "name": "owner",
          "type": "address"
        },
        {
          "indexed": true,
          "internalType": "address",
          "name": "approved",
          "type": "address"
        },
        {
          "indexed": true,
          "internalType": "uint256",
          "name": "tokenId",
          "type": "uint256"
        }
      ],
      "name": "Approval",
      "type": "event"
    },
    {
      "anonymous": false,
      "inputs": [
        {
          "indexed": true,
          "internalType": "address",
          "name": "owner",
          "type": "address"
        },
        {
          "indexed": true,
          "internalType": "address",
          "name": "operator",
          "type": "address"
        },
        {
          "indexed": false,
          "internalType": "bool",
          "name": "approved",
          "type": "bool"
        }
      ],
      "name": "ApprovalForAll",
      "type": "event"
    },
    {
      "anonymous": false,
      "inputs": [
        {
          "indexed": true,
          "internalType": "address",
          "name": "previousOwner",
          "type": "address"
        },
        {
          "indexed": true,
          "internalType": "address",
          "name": "newOwner",
          "type": "address"
        }
      ],
      "name": "OwnershipTransferred",
      "type": "event"
    },
    {
      "anonymous": false,
      "inputs": [
        {
          "indexed": true,
          "internalType": "address",
          "name": "from",
          "type": "address"
        },
        {
          "indexed": true,
          "internalType": "address",
          "name": "to",
          "type": "address"
        },
        {
          "indexed": true,
          "internalType": "uint256",
          "name": "tokenId",
          "type": "uint256"
        }
      ],
      "name": "Transfer",
      "type": "event"
    },
    {
      "inputs": [],
      "name": "MAX_TEAMS",
      "outputs": [
        {
          "internalType": "uint256",
          "name": "",
          "type": "uint256"
        }
      ],
      "stateMutability": "view",
      "type": "function"
    },
    {
      "inputs": [],
      "name": "TOTAL_RACES",
      "outputs": [
        {
          "internalType": "uint256",
          "name": "",
          "type": "uint256"
        }
      ],
      "stateMutability": "view",
      "type": "function"
    },
    {
      "inputs": [
        {
          "internalType": "address",
          "name": "to",
          "type": "address"
        },
        {
          "internalType": "uint256",
          "name": "tokenId",
          "type": "uint256"
        }
      ],
      "name": "approve",
      "outputs": [],
      "stateMutability": "nonpayable",
      "type": "function"
    },
    {
      "inputs": [
        {
          "internalType": "address",
          "name": "owner",
          "type": "address"
        }
      ],
      "name": "balanceOf",
      "outputs": [
        {
          "internalType": "uint256",
          "name": "",
          "type": "uint256"
        }
      ],
      "stateMutability": "view",
      "type": "function"
    },
    {
      "inputs": [
        {
          "internalType": "uint256",
          "name": "",
          "type": "uint256"
        }
      ],
      "name": "driverNames",
      "outputs": [
        {
          "internalType": "string",
          "name": "",
          "type": "string"
        }
      ],
      "stateMutability": "view",
      "type": "function"
    },
    {
      "inputs": [
        {
          "internalType": "uint256",
          "name": "tokenId",
          "type": "uint256"
        }
      ],
      "name": "getApproved",
      "outputs": [
        {
          "internalType": "address",
          "name": "",
          "type": "address"
        }
      ],
      "stateMutability": "view",
      "type": "function"
    },
    {
      "inputs": [
        {
          "internalType": "address",
          "name": "owner",
          "type": "address"
        },
        {
          "internalType": "address",
          "name": "operator",
          "type": "address"
        }
      ],
      "name": "isApprovedForAll",
      "outputs": [
        {
          "internalType": "bool",
          "name": "",
          "type": "bool"
        }
      ],
      "stateMutability": "view",
      "type": "function"
    },
    {
      "inputs": [],
      "name": "name",
      "outputs": [
        {
          "internalType": "string",
          "name": "",
          "type": "string"
        }
      ],
      "stateMutability": "view",
      "type": "function"
    },
    {
      "inputs": [],
      "name": "nextRaceId",
      "outputs": [
        {
          "internalType": "uint256",
          "name": "",
          "type": "uint256"
        }
      ],
      "stateMutability": "view",
      "type": "function"
    },
    {
      "inputs": [],
      "name": "owner",
      "outputs": [
        {
          "internalType": "address",
          "name": "",
          "type": "address"
        }
      ],
      "stateMutability": "view",
      "type": "function"
    },
    {
      "inputs": [
        {
          "internalType": "uint256",
          "name": "tokenId",
          "type": "uint256"
        }
      ],
      "name": "ownerOf",
      "outputs": [
        {
          "internalType": "address",
          "name": "",
          "type": "address"
        }
      ],
      "stateMutability": "view",
      "type": "function"
    },
    {
      "inputs": [
        {
          "internalType": "uint256",
          "name": "",
          "type": "uint256"
        },
        {
          "internalType": "uint256",
          "name": "",
          "type": "uint256"
        }
      ],
      "name": "raceScores",
      "outputs": [
        {
          "internalType": "uint256",
          "name": "",
          "type": "uint256"
        }
      ],
      "stateMutability": "view",
      "type": "function"
    },
    {
      "inputs": [
        {
          "internalType": "uint256",
          "name": "",
          "type": "uint256"
        }
      ],
      "name": "races",
      "outputs": [
        {
          "internalType": "string",
          "name": "raceName",
          "type": "string"
        },
        {
          "internalType": "bool",
          "name": "raceCompleted",
          "type": "bool"
        },
        {
          "internalType": "string",
          "name": "fastestPitstopTeam",
          "type": "string"
        }
      ],
      "stateMutability": "view",
      "type": "function"
    },
    {
      "inputs": [],
      "name": "renounceOwnership",
      "outputs": [],
      "stateMutability": "nonpayable",
      "type": "function"
    },
    {
      "inputs": [
        {
          "internalType": "address",
          "name": "from",
          "type": "address"
        },
        {
          "internalType": "address",
          "name": "to",
          "type": "address"
        },
        {
          "internalType": "uint256",
          "name": "tokenId",
          "type": "uint256"
        }
      ],
      "name": "safeTransferFrom",
      "outputs": [],
      "stateMutability": "nonpayable",
      "type": "function"
    },
    {
      "inputs": [
        {
          "internalType": "address",
          "name": "from",
          "type": "address"
        },
        {
          "internalType": "address",
          "name": "to",
          "type": "address"
        },
        {
          "internalType": "uint256",
          "name": "tokenId",
          "type": "uint256"
        },
        {
          "internalType": "bytes",
          "name": "data",
          "type": "bytes"
        }
      ],
      "name": "safeTransferFrom",
      "outputs": [],
      "stateMutability": "nonpayable",
      "type": "function"
    },
    {
      "inputs": [
        {
          "internalType": "address",
          "name": "operator",
          "type": "address"
        },
        {
          "internalType": "bool",
          "name": "approved",
          "type": "bool"
        }
      ],
      "name": "setApprovalForAll",
      "outputs": [],
      "stateMutability": "nonpayable",
      "type": "function"
    },
    {
      "inputs": [
        {
          "internalType": "bytes4",
          "name": "interfaceId",
          "type": "bytes4"
        }
      ],
      "name": "supportsInterface",
      "outputs": [
        {
          "internalType": "bool",
          "name": "",
          "type": "bool"
        }
      ],
      "stateMutability": "view",
      "type": "function"
    },
    {
      "inputs": [],
      "name": "symbol",
      "outputs": [
        {
          "internalType": "string",
          "name": "",
          "type": "string"
        }
      ],
      "stateMutability": "view",
      "type": "function"
    },
    {
      "inputs": [
        {
          "internalType": "uint256",
          "name": "",
          "type": "uint256"
        }
      ],
      "name": "teams",
      "outputs": [
        {
          "internalType": "uint256",
          "name": "driver1",
          "type": "uint256"
        },
        {
          "internalType": "uint256",
          "name": "driver2",
          "type": "uint256"
        },
        {
          "internalType": "string",
          "name": "constructorTeam",
          "type": "string"
        },
        {
          "internalType": "string",
          "name": "teamName",
          "type": "string"
        }
      ],
      "stateMutability": "view",
      "type": "function"
    },
    {
      "inputs": [
        {
          "internalType": "uint256",
          "name": "index",
          "type": "uint256"
        }
      ],
      "name": "tokenByIndex",
      "outputs": [
        {
          "internalType": "uint256",
          "name": "",
          "type": "uint256"
        }
      ],
      "stateMutability": "view",
      "type": "function"
    },
    {
      "inputs": [
        {
          "internalType": "address",
          "name": "owner",
          "type": "address"
        },
        {
          "internalType": "uint256",
          "name": "index",
          "type": "uint256"
        }
      ],
      "name": "tokenOfOwnerByIndex",
      "outputs": [
        {
          "internalType": "uint256",
          "name": "",
          "type": "uint256"
        }
      ],
      "stateMutability": "view",
      "type": "function"
    },
    {
      "inputs": [
        {
          "internalType": "uint256",
          "name": "tokenId",
          "type": "uint256"
        }
      ],
      "name": "tokenURI",
      "outputs": [
        {
          "internalType": "string",
          "name": "",
          "type": "string"
        }
      ],
      "stateMutability": "view",
      "type": "function"
    },
    {
      "inputs": [],
      "name": "totalSupply",
      "outputs": [
        {
          "internalType": "uint256",
          "name": "",
          "type": "uint256"
        }
      ],
      "stateMutability": "view",
      "type": "function"
    },
    {
      "inputs": [],
      "name": "totalTeams",
      "outputs": [
        {
          "internalType": "uint256",
          "name": "",
          "type": "uint256"
        }
      ],
      "stateMutability": "view",
      "type": "function"
    },
    {
      "inputs": [
        {
          "internalType": "address",
          "name": "from",
          "type": "address"
        },
        {
          "internalType": "address",
          "name": "to",
          "type": "address"
        },
        {
          "internalType": "uint256",
          "name": "tokenId",
          "type": "uint256"
        }
      ],
      "name": "transferFrom",
      "outputs": [],
      "stateMutability": "nonpayable",
      "type": "function"
    },
    {
      "inputs": [
        {
          "internalType": "address",
          "name": "newOwner",
          "type": "address"
        }
      ],
      "name": "transferOwnership",
      "outputs": [],
      "stateMutability": "nonpayable",
      "type": "function"
    },
    {
      "inputs": [],
      "name": "initialize",
      "outputs": [],
      "stateMutability": "nonpayable",
      "type": "function"
    },
    {
      "inputs": [
        {
          "internalType": "uint256",
          "name": "driver1",
          "type": "uint256"
        },
        {
          "internalType": "uint256",
          "name": "driver2",
          "type": "uint256"
        },
        {
          "internalType": "string",
          "name": "constructorteam",
          "type": "string"
        },
        {
          "internalType": "string",
          "name": "teamName",
          "type": "string"
        }
      ],
      "name": "createTeam",
      "outputs": [],
      "stateMutability": "nonpayable",
      "type": "function"
    },
    {
      "inputs": [],
      "name": "startRace",
      "outputs": [],
      "stateMutability": "nonpayable",
      "type": "function"
    },
    {
      "inputs": [],
      "name": "getLeaderboard",
      "outputs": [
        {
          "internalType": "string[3]",
          "name": "teamNames",
          "type": "string[3]"
        },
        {
          "internalType": "uint256[3]",
          "name": "scores",
          "type": "uint256[3]"
        }
      ],
      "stateMutability": "view",
      "type": "function"
    }
  ],
  "bytecode": "0x60806040526001600b555f600c5534801562000019575f80fd5b50336040518060400160405280600d81526020017f46616e7461737946315465616d000000000000000000000000000000000000008152506040518060400160405280600381526020017f4631540000000000000000000000000000000000000000000000000000000000815250815f90816200009791906200045e565b508060019081620000a991906200045e565b5050505f73ffffffffffffffffffffffffffffffffffffffff168173ffffffffffffffffffffffffffffffffffffffff16036200011f575f6040517f1e4fbdf700000000000000000000000000000000000000000000000000000000815260040162000116919062000585565b60405180910390fd5b62000130816200013760201b60201c565b50620005a0565b5f600a5f9054906101000a900473ffffffffffffffffffffffffffffffffffffffff16905081600a5f6101000a81548173ffffffffffffffffffffffffffffffffffffffff021916908373ffffffffffffffffffffffffffffffffffffffff1602179055508173ffffffffffffffffffffffffffffffffffffffff168173ffffffffffffffffffffffffffffffffffffffff167f8be0079c531659141344cd1fd0a4f28419497f9722a3daafe3b4186f6b6457e060405160405180910390a35050565b5f81519050919050565b7f4e487b71000000000000000000000000000000000000000000000000000000005f52604160045260245ffd5b7f4e487b71000000000000000000000000000000000000000000000000000000005f52602260045260245ffd5b5f60028204905060018216806200027657607f821691505b6020821081036200028c576200028b62000231565b5b50919050565b5f819050815f5260205f209050919050565b5f6020601f8301049050919050565b5f82821b905092915050565b5f60088302620002f07fffffffffffffffffffffffffffffffffffffffffffffffffffffffffffffffff82620002b3565b620002fc8683620002b3565b95508019841693508086168417925050509392505050565b5f819050919050565b5f819050919050565b5f62000346620003406200033a8462000314565b6200031d565b62000314565b9050919050565b5f819050919050565b620003618362000326565b6200037962000370826200034d565b848454620002bf565b825550505050565b5f90565b6200038f62000381565b6200039c81848462000356565b505050565b5b81811015620003c357620003b75f8262000385565b600181019050620003a2565b5050565b601f8211156200041257620003dc8162000292565b620003e784620002a4565b81016020851015620003f7578190505b6200040f6200040685620002a4565b830182620003a1565b50505b505050565b5f82821c905092915050565b5f620004345f198460080262000417565b1980831691505092915050565b5f6200044e838362000423565b9150826002028217905092915050565b6200046982620001fa565b67ffffffffffffffff81111562000485576200048462000204565b5b6200049182546200025e565b6200049e828285620003c7565b5f60209050601f831160018114620004d4575f8415620004bf578287015190505b620004cb858262000441565b8655506200053a565b601f198416620004e48662000292565b5f5b828110156200050d57848901518255600182019150602085019450602081019050620004e6565b868310156200052d578489015162000529601f89168262000423565b8355505b6001600288020188555050505b505050505050565b5f73ffffffffffffffffffffffffffffffffffffffff82169050919050565b5f6200056d8262000542565b9050919050565b6200057f8162000561565b82525050565b5f6020820190506200059a5f83018462000574565b92915050565b61574d80620005ae5f395ff3fe608060405234801561000f575f80fd5b50600436106101e3575f3560e01c80636d763a6e1161010d578063a22cb465116100a0578063c87b56dd1161006f578063c87b56dd14610583578063d9b8fd8f146105b3578063e985e9c5146105d1578063f2fde38b14610601576101e3565b8063a22cb465146104ff578063a96137be1461051b578063acb7b1371461054b578063b88d4fde14610567576101e3565b80637cf7481b116100dc5780637cf7481b1461049b5780638129fc1c146104b95780638da5cb5b146104c357806395d89b41146104e1576101e3565b80636d763a6e1461041057806370a082311461042f578063715018a61461045f5780637bbc469e14610469576101e3565b80632f745c59116101855780634f6ccce7116101545780634f6ccce7146103885780636352211e146103b8578063654c6daf146103e85780636ad7ed4714610406576101e3565b80632f745c59146102d95780633bcb030a146103095780633ed2b77a1461033957806342842e0e1461036c576101e3565b8063095ea7b3116101c1578063095ea7b31461026557806318160ddd14610281578063213b53911461029f57806323b872dd146102bd576101e3565b806301ffc9a7146101e757806306fdde0314610217578063081812fc14610235575b5f80fd5b61020160048036038101906101fc91906145ef565b61061d565b60405161020e9190614634565b60405180910390f35b61021f610696565b60405161022c91906146d7565b60405180910390f35b61024f600480360381019061024a919061472a565b610725565b60405161025c9190614794565b60405180910390f35b61027f600480360381019061027a91906147d7565b610740565b005b610289610756565b6040516102969190614824565b60405180910390f35b6102a7610762565b6040516102b49190614824565b60405180910390f35b6102d760048036038101906102d2919061483d565b610768565b005b6102f360048036038101906102ee91906147d7565b610867565b6040516103009190614824565b60405180910390f35b610323600480360381019061031e919061488d565b61090b565b6040516103309190614824565b60405180910390f35b610353600480360381019061034e919061472a565b61092b565b60405161036394939291906148cb565b60405180910390f35b6103866004803603810190610381919061483d565b610a63565b005b6103a2600480360381019061039d919061472a565b610a82565b6040516103af9190614824565b60405180910390f35b6103d260048036038101906103cd919061472a565b610af4565b6040516103df9190614794565b60405180910390f35b6103f0610b05565b6040516103fd9190614824565b60405180910390f35b61040e610b0b565b005b610418610d1f565b604051610426929190614ab8565b60405180910390f35b61044960048036038101906104449190614ae6565b610fd7565b6040516104569190614824565b60405180910390f35b61046761108d565b005b610483600480360381019061047e919061472a565b6110a0565b60405161049293929190614b11565b60405180910390f35b6104a36111de565b6040516104b09190614824565b60405180910390f35b6104c16111e3565b005b6104cb612aeb565b6040516104d89190614794565b60405180910390f35b6104e9612b13565b6040516104f691906146d7565b60405180910390f35b61051960048036038101906105149190614b7e565b612ba3565b005b6105356004803603810190610530919061472a565b612bb9565b60405161054291906146d7565b60405180910390f35b61056560048036038101906105609190614ce8565b612c54565b005b610581600480360381019061057c9190614e22565b612d7a565b005b61059d6004803603810190610598919061472a565b612d97565b6040516105aa91906146d7565b60405180910390f35b6105bb612dfd565b6040516105c89190614824565b60405180910390f35b6105eb60048036038101906105e69190614ea2565b612e03565b6040516105f89190614634565b60405180910390f35b61061b60048036038101906106169190614ae6565b612e91565b005b5f7f780e9d63000000000000000000000000000000000000000000000000000000007bffffffffffffffffffffffffffffffffffffffffffffffffffffffff1916827bffffffffffffffffffffffffffffffffffffffffffffffffffffffff1916148061068f575061068e82612f15565b5b9050919050565b60605f80546106a490614f0d565b80601f01602080910402602001604051908101604052809291908181526020018280546106d090614f0d565b801561071b5780601f106106f25761010080835404028352916020019161071b565b820191905f5260205f20905b8154815290600101906020018083116106fe57829003601f168201915b5050505050905090565b5f61072f82612ff6565b506107398261307c565b9050919050565b610752828261074d6130b5565b6130bc565b5050565b5f600880549050905090565b61271081565b5f73ffffffffffffffffffffffffffffffffffffffff168273ffffffffffffffffffffffffffffffffffffffff16036107d8575f6040517f64a0ae920000000000000000000000000000000000000000000000000000000081526004016107cf9190614794565b60405180910390fd5b5f6107eb83836107e66130b5565b6130ce565b90508373ffffffffffffffffffffffffffffffffffffffff168173ffffffffffffffffffffffffffffffffffffffff1614610861578382826040517f64283d7b00000000000000000000000000000000000000000000000000000000815260040161085893929190614f3d565b60405180910390fd5b50505050565b5f61087183610fd7565b82106108b65782826040517fa57d13dc0000000000000000000000000000000000000000000000000000000081526004016108ad929190614f72565b60405180910390fd5b60065f8473ffffffffffffffffffffffffffffffffffffffff1673ffffffffffffffffffffffffffffffffffffffff1681526020019081526020015f205f8381526020019081526020015f2054905092915050565b600e602052815f5260405f20602052805f5260405f205f91509150505481565b6010602052805f5260405f205f91509050805f01549080600101549080600201805461095690614f0d565b80601f016020809104026020016040519081016040528092919081815260200182805461098290614f0d565b80156109cd5780601f106109a4576101008083540402835291602001916109cd565b820191905f5260205f20905b8154815290600101906020018083116109b057829003601f168201915b5050505050908060030180546109e290614f0d565b80601f0160208091040260200160405190810160405280929190818152602001828054610a0e90614f0d565b8015610a595780601f10610a3057610100808354040283529160200191610a59565b820191905f5260205f20905b815481529060010190602001808311610a3c57829003601f168201915b5050505050905084565b610a7d83838360405180602001604052805f815250612d7a565b505050565b5f610a8b610756565b8210610ad0575f826040517fa57d13dc000000000000000000000000000000000000000000000000000000008152600401610ac7929190614f72565b60405180910390fd5b60088281548110610ae457610ae3614f99565b5b905f5260205f2001549050919050565b5f610afe82612ff6565b9050919050565b600c5481565b610b136131e8565b6005600b541115610b59576040517f08c379a0000000000000000000000000000000000000000000000000000000008152600401610b5090615010565b60405180910390fd5b5f600d5f600b5481526020019081526020015f209050806002015f9054906101000a900460ff1615610bc0576040517f08c379a0000000000000000000000000000000000000000000000000000000008152600401610bb790615078565b60405180910390fd5b5f5b600c54811015610ce8575f8190505f610bee60105f8481526020019081526020015f205f01548561326f565b90505f610c0f60105f8581526020019081526020015f20600101548661326f565b90505f610ca8838386896003018054610c2790614f0d565b80601f0160208091040260200160405190810160405280929190818152602001828054610c5390614f0d565b8015610c9e5780601f10610c7557610100808354040283529160200191610c9e565b820191905f5260205f20905b815481529060010190602001808311610c8157829003601f168201915b50505050506132e2565b905080600e5f600b5481526020019081526020015f205f8681526020019081526020015f2081905550505050508080610ce0906150c3565b915050610bc2565b506001816002015f6101000a81548160ff021916908315150217905550600b5f815480929190610d17906150c3565b919050555050565b610d27614540565b610d2f614567565b610d37614567565b610d3f614567565b5f5b600c54811015610eb0575f600e5f6001600b54610d5e919061510a565b81526020019081526020015f205f8381526020019081526020015f205490505f5b6003811015610e9b57848160038110610d9b57610d9a614f99565b5b6020020151821115610e88575f600290505b81811115610e485785600182610dc3919061510a565b60038110610dd457610dd3614f99565b5b6020020151868260038110610dec57610deb614f99565b5b60200201818152505084600182610e03919061510a565b60038110610e1457610e13614f99565b5b6020020151858260038110610e2c57610e2b614f99565b5b6020020181815250508080610e409061513d565b915050610dad565b5081858260038110610e5d57610e5c614f99565b5b60200201818152505082848260038110610e7a57610e79614f99565b5b602002018181525050610e9b565b8080610e93906150c3565b915050610d7f565b50508080610ea8906150c3565b915050610d41565b505f5b6003811015610fd05760105f838360038110610ed257610ed1614f99565b5b602002015181526020019081526020015f206003018054610ef290614f0d565b80601f0160208091040260200160405190810160405280929190818152602001828054610f1e90614f0d565b8015610f695780601f10610f4057610100808354040283529160200191610f69565b820191905f5260205f20905b815481529060010190602001808311610f4c57829003601f168201915b5050505050858260038110610f8157610f80614f99565b5b6020020181905250828160038110610f9c57610f9b614f99565b5b6020020151848260038110610fb457610fb3614f99565b5b6020020181815250508080610fc8906150c3565b915050610eb3565b5050509091565b5f8073ffffffffffffffffffffffffffffffffffffffff168273ffffffffffffffffffffffffffffffffffffffff1603611048575f6040517f89c62b6400000000000000000000000000000000000000000000000000000000815260040161103f9190614794565b60405180910390fd5b60035f8373ffffffffffffffffffffffffffffffffffffffff1673ffffffffffffffffffffffffffffffffffffffff1681526020019081526020015f20549050919050565b6110956131e8565b61109e5f6133c7565b565b600d602052805f5260405f205f91509050805f0180546110bf90614f0d565b80601f01602080910402602001604051908101604052809291908181526020018280546110eb90614f0d565b80156111365780601f1061110d57610100808354040283529160200191611136565b820191905f5260205f20905b81548152906001019060200180831161111957829003601f168201915b505050505090806002015f9054906101000a900460ff169080600301805461115d90614f0d565b80601f016020809104026020016040519081016040528092919081815260200182805461118990614f0d565b80156111d45780601f106111ab576101008083540402835291602001916111d4565b820191905f5260205f20905b8154815290600101906020018083116111b757829003601f168201915b5050505050905083565b600581565b6111eb6131e8565b6040518060400160405280600581526020017f4c65776973000000000000000000000000000000000000000000000000000000815250600f5f600181526020019081526020015f20908161123f9190615301565b506040518060400160405280600381526020017f4d61780000000000000000000000000000000000000000000000000000000000815250600f5f600281526020019081526020015f2090816112949190615301565b506040518060400160405280600581526020017f4c616e646f000000000000000000000000000000000000000000000000000000815250600f5f600381526020019081526020015f2090816112e99190615301565b506040518060400160405280600581526020017f4f73636172000000000000000000000000000000000000000000000000000000815250600f5f600481526020019081526020015f20908161133e9190615301565b506040518060400160405280600681526020017f4361726c6f730000000000000000000000000000000000000000000000000000815250600f5f600581526020019081526020015f2090816113939190615301565b506040518060400160405280600581526020017f4b6576696e000000000000000000000000000000000000000000000000000000815250600f5f600681526020019081526020015f2090816113e89190615301565b506040518060400160405280600681526020017f44616e69656c0000000000000000000000000000000000000000000000000000815250600f5f600781526020019081526020015f20908161143d9190615301565b506040518060400160405280600781526020017f436861726c657300000000000000000000000000000000000000000000000000815250600f5f600881526020019081526020015f2090816114929190615301565b506040518060400160405280600481526020017f416c657800000000000000000000000000000000000000000000000000000000815250600f5f600981526020019081526020015f2090816114e79190615301565b506040518060400160405280600681526020017f47656f7267650000000000000000000000000000000000000000000000000000815250600f5f600a81526020019081526020015f20908161153c9190615301565b506040518060400160405280600481526020017f59756b6900000000000000000000000000000000000000000000000000000000815250600f5f600b81526020019081526020015f2090816115919190615301565b506040518060400160405280600881526020017f4665726e616e646f000000000000000000000000000000000000000000000000815250600f5f600c81526020019081526020015f2090816115e69190615301565b506040518060400160405280600581526020017f4c616e6365000000000000000000000000000000000000000000000000000000815250600f5f600d81526020019081526020015f20908161163b9190615301565b506040518060400160405280600581526020017f4761736c79000000000000000000000000000000000000000000000000000000815250600f5f600e81526020019081526020015f2090816116909190615301565b506040518060400160405280600781526020017f4573746562616e00000000000000000000000000000000000000000000000000815250600f5f600f81526020019081526020015f2090816116e59190615301565b506040518060400160405280600481526020017f4e696b6f00000000000000000000000000000000000000000000000000000000815250600f5f601081526020019081526020015f20908161173a9190615301565b506040518060400160405280600581526020017f4c6f67616e000000000000000000000000000000000000000000000000000000815250600f5f601181526020019081526020015f20908161178f9190615301565b506040518060400160405280600481526020017f5a686f7500000000000000000000000000000000000000000000000000000000815250600f5f601281526020019081526020015f2090816117e49190615301565b506040518060400160405280600681526020017f426f747461730000000000000000000000000000000000000000000000000000815250600f5f601381526020019081526020015f2090816118399190615301565b506040518060400160405280600681526020017f53657267696f0000000000000000000000000000000000000000000000000000815250600f5f601481526020019081526020015f20908161188e9190615301565b506040518060400160405280601581526020017f4175737472616c69616e204772616e6420507269780000000000000000000000815250600d5f600b5481526020019081526020015f205f0190816118e69190615301565b505f600d5f600b5481526020019081526020015f206002015f6101000a81548160ff0219169083151502179055506040518060400160405280600781526020017f4d634c6172656e00000000000000000000000000000000000000000000000000815250600d5f600b5481526020019081526020015f20600301908161196c9190615301565b506040518060400160405280600581526020017f4c65776973000000000000000000000000000000000000000000000000000000815250600d5f600b5481526020019081526020015f206001015f600181526020019081526020015f2090816119d59190615301565b506040518060400160405280600381526020017f4d61780000000000000000000000000000000000000000000000000000000000815250600d5f600b5481526020019081526020015f206001015f600281526020019081526020015f209081611a3e9190615301565b506040518060400160405280600581526020017f4c616e646f000000000000000000000000000000000000000000000000000000815250600d5f600b5481526020019081526020015f206001015f600381526020019081526020015f209081611aa79190615301565b506040518060400160405280600581526020017f4f73636172000000000000000000000000000000000000000000000000000000815250600d5f600b5481526020019081526020015f206001015f600481526020019081526020015f209081611b109190615301565b506040518060400160405280600681526020017f4361726c6f730000000000000000000000000000000000000000000000000000815250600d5f600b5481526020019081526020015f206001015f600581526020019081526020015f209081611b799190615301565b506040518060400160405280600581526020017f4b6576696e000000000000000000000000000000000000000000000000000000815250600d5f600b5481526020019081526020015f206001015f600681526020019081526020015f209081611be29190615301565b506040518060400160405280600681526020017f44616e69656c0000000000000000000000000000000000000000000000000000815250600d5f600b5481526020019081526020015f206001015f600781526020019081526020015f209081611c4b9190615301565b506040518060400160405280600781526020017f436861726c657300000000000000000000000000000000000000000000000000815250600d5f600b5481526020019081526020015f206001015f600881526020019081526020015f209081611cb49190615301565b506040518060400160405280600481526020017f416c657800000000000000000000000000000000000000000000000000000000815250600d5f600b5481526020019081526020015f206001015f600981526020019081526020015f209081611d1d9190615301565b506040518060400160405280600681526020017f47656f7267650000000000000000000000000000000000000000000000000000815250600d5f600b5481526020019081526020015f206001015f600a81526020019081526020015f209081611d869190615301565b506040518060400160405280600481526020017f59756b6900000000000000000000000000000000000000000000000000000000815250600d5f600b5481526020019081526020015f206001015f600b81526020019081526020015f209081611def9190615301565b506040518060400160405280600881526020017f4665726e616e646f000000000000000000000000000000000000000000000000815250600d5f600b5481526020019081526020015f206001015f600c81526020019081526020015f209081611e589190615301565b506040518060400160405280600581526020017f4c616e6365000000000000000000000000000000000000000000000000000000815250600d5f600b5481526020019081526020015f206001015f600d81526020019081526020015f209081611ec19190615301565b506040518060400160405280600581526020017f4761736c79000000000000000000000000000000000000000000000000000000815250600d5f600b5481526020019081526020015f206001015f600e81526020019081526020015f209081611f2a9190615301565b506040518060400160405280600781526020017f4573746562616e00000000000000000000000000000000000000000000000000815250600d5f600b5481526020019081526020015f206001015f600f81526020019081526020015f209081611f939190615301565b506040518060400160405280600481526020017f4e696b6f00000000000000000000000000000000000000000000000000000000815250600d5f600b5481526020019081526020015f206001015f601081526020019081526020015f209081611ffc9190615301565b506040518060400160405280600581526020017f4c6f67616e000000000000000000000000000000000000000000000000000000815250600d5f600b5481526020019081526020015f206001015f601181526020019081526020015f2090816120659190615301565b506040518060400160405280600481526020017f5a686f7500000000000000000000000000000000000000000000000000000000815250600d5f600b5481526020019081526020015f206001015f601281526020019081526020015f2090816120ce9190615301565b506040518060400160405280600681526020017f426f747461730000000000000000000000000000000000000000000000000000815250600d5f600b5481526020019081526020015f206001015f601381526020019081526020015f2090816121379190615301565b506040518060400160405280600681526020017f53657267696f0000000000000000000000000000000000000000000000000000815250600d5f600b5481526020019081526020015f206001015f601481526020019081526020015f2090816121a09190615301565b50600b5f8154809291906121b3906150c3565b91905055506040518060400160405280601281526020017f4261687261696e204772616e6420507269780000000000000000000000000000815250600d5f600b5481526020019081526020015f205f01908161220f9190615301565b505f600d5f600b5481526020019081526020015f206002015f6101000a81548160ff0219169083151502179055506040518060400160405280600f81526020017f5265642042756c6c20526163696e670000000000000000000000000000000000815250600d5f600b5481526020019081526020015f2060030190816122959190615301565b506040518060400160405280600581526020017f4f73636172000000000000000000000000000000000000000000000000000000815250600d5f600b5481526020019081526020015f206001015f600181526020019081526020015f2090816122fe9190615301565b506040518060400160405280600381526020017f4d61780000000000000000000000000000000000000000000000000000000000815250600d5f600b5481526020019081526020015f206001015f600281526020019081526020015f2090816123679190615301565b506040518060400160405280600581526020017f4c616e646f000000000000000000000000000000000000000000000000000000815250600d5f600b5481526020019081526020015f206001015f600381526020019081526020015f2090816123d09190615301565b506040518060400160405280600581526020017f4c65776973000000000000000000000000000000000000000000000000000000815250600d5f600b5481526020019081526020015f206001015f600481526020019081526020015f2090816124399190615301565b506040518060400160405280600681526020017f4361726c6f730000000000000000000000000000000000000000000000000000815250600d5f600b5481526020019081526020015f206001015f600581526020019081526020015f2090816124a29190615301565b506040518060400160405280600581526020017f4b6576696e000000000000000000000000000000000000000000000000000000815250600d5f600b5481526020019081526020015f206001015f600681526020019081526020015f20908161250b9190615301565b506040518060400160405280600681526020017f44616e69656c0000000000000000000000000000000000000000000000000000815250600d5f600b5481526020019081526020015f206001015f600781526020019081526020015f2090816125749190615301565b506040518060400160405280600781526020017f436861726c657300000000000000000000000000000000000000000000000000815250600d5f600b5481526020019081526020015f206001015f600881526020019081526020015f2090816125dd9190615301565b506040518060400160405280600481526020017f416c657800000000000000000000000000000000000000000000000000000000815250600d5f600b5481526020019081526020015f206001015f600981526020019081526020015f2090816126469190615301565b506040518060400160405280600681526020017f47656f7267650000000000000000000000000000000000000000000000000000815250600d5f600b5481526020019081526020015f206001015f600a81526020019081526020015f2090816126af9190615301565b506040518060400160405280600481526020017f59756b6900000000000000000000000000000000000000000000000000000000815250600d5f600b5481526020019081526020015f206001015f600b81526020019081526020015f2090816127189190615301565b506040518060400160405280600881526020017f4665726e616e646f000000000000000000000000000000000000000000000000815250600d5f600b5481526020019081526020015f206001015f600c81526020019081526020015f2090816127819190615301565b506040518060400160405280600581526020017f4c616e6365000000000000000000000000000000000000000000000000000000815250600d5f600b5481526020019081526020015f206001015f600d81526020019081526020015f2090816127ea9190615301565b506040518060400160405280600581526020017f4761736c79000000000000000000000000000000000000000000000000000000815250600d5f600b5481526020019081526020015f206001015f600e81526020019081526020015f2090816128539190615301565b506040518060400160405280600781526020017f4573746562616e00000000000000000000000000000000000000000000000000815250600d5f600b5481526020019081526020015f206001015f600f81526020019081526020015f2090816128bc9190615301565b506040518060400160405280600481526020017f4e696b6f00000000000000000000000000000000000000000000000000000000815250600d5f600b5481526020019081526020015f206001015f601081526020019081526020015f2090816129259190615301565b506040518060400160405280600581526020017f4c6f67616e000000000000000000000000000000000000000000000000000000815250600d5f600b5481526020019081526020015f206001015f601181526020019081526020015f20908161298e9190615301565b506040518060400160405280600481526020017f5a686f7500000000000000000000000000000000000000000000000000000000815250600d5f600b5481526020019081526020015f206001015f601281526020019081526020015f2090816129f79190615301565b506040518060400160405280600681526020017f426f747461730000000000000000000000000000000000000000000000000000815250600d5f600b5481526020019081526020015f206001015f601381526020019081526020015f209081612a609190615301565b506040518060400160405280600681526020017f53657267696f0000000000000000000000000000000000000000000000000000815250600d5f600b5481526020019081526020015f206001015f601481526020019081526020015f209081612ac99190615301565b50600b5f815480929190612adc906150c3565b91905055506001600b81905550565b5f600a5f9054906101000a900473ffffffffffffffffffffffffffffffffffffffff16905090565b606060018054612b2290614f0d565b80601f0160208091040260200160405190810160405280929190818152602001828054612b4e90614f0d565b8015612b995780601f10612b7057610100808354040283529160200191612b99565b820191905f5260205f20905b815481529060010190602001808311612b7c57829003601f168201915b5050505050905090565b612bb5612bae6130b5565b838361348a565b5050565b600f602052805f5260405f205f915090508054612bd590614f0d565b80601f0160208091040260200160405190810160405280929190818152602001828054612c0190614f0d565b8015612c4c5780601f10612c2357610100808354040283529160200191612c4c565b820191905f5260205f20905b815481529060010190602001808311612c2f57829003601f168201915b505050505081565b612710600c5410612c9a576040517f08c379a0000000000000000000000000000000000000000000000000000000008152600401612c919061541a565b60405180910390fd5b828403612cdc576040517f08c379a0000000000000000000000000000000000000000000000000000000008152600401612cd390615482565b60405180910390fd5b60405180608001604052808581526020018481526020018381526020018281525060105f600c5481526020019081526020015f205f820151815f0155602082015181600101556040820151816002019081612d379190615301565b506060820151816003019081612d4d9190615301565b50905050612d5d33600c546135f3565b600c5f815480929190612d6f906150c3565b919050555050505050565b612d85848484610768565b612d9184848484613610565b50505050565b6060612da282612ff6565b505f612dac6137c2565b90505f815111612dca5760405180602001604052805f815250612df5565b80612dd4846137d8565b604051602001612de59291906154da565b6040516020818303038152906040525b915050919050565b600b5481565b5f60055f8473ffffffffffffffffffffffffffffffffffffffff1673ffffffffffffffffffffffffffffffffffffffff1681526020019081526020015f205f8373ffffffffffffffffffffffffffffffffffffffff1673ffffffffffffffffffffffffffffffffffffffff1681526020019081526020015f205f9054906101000a900460ff16905092915050565b612e996131e8565b5f73ffffffffffffffffffffffffffffffffffffffff168173ffffffffffffffffffffffffffffffffffffffff1603612f09575f6040517f1e4fbdf7000000000000000000000000000000000000000000000000000000008152600401612f009190614794565b60405180910390fd5b612f12816133c7565b50565b5f7f80ac58cd000000000000000000000000000000000000000000000000000000007bffffffffffffffffffffffffffffffffffffffffffffffffffffffff1916827bffffffffffffffffffffffffffffffffffffffffffffffffffffffff19161480612fdf57507f5b5e139f000000000000000000000000000000000000000000000000000000007bffffffffffffffffffffffffffffffffffffffffffffffffffffffff1916827bffffffffffffffffffffffffffffffffffffffffffffffffffffffff1916145b80612fef5750612fee826138a2565b5b9050919050565b5f806130018361390b565b90505f73ffffffffffffffffffffffffffffffffffffffff168173ffffffffffffffffffffffffffffffffffffffff160361307357826040517f7e27328900000000000000000000000000000000000000000000000000000000815260040161306a9190614824565b60405180910390fd5b80915050919050565b5f60045f8381526020019081526020015f205f9054906101000a900473ffffffffffffffffffffffffffffffffffffffff169050919050565b5f33905090565b6130c98383836001613944565b505050565b5f806130db858585613b03565b90505f73ffffffffffffffffffffffffffffffffffffffff168173ffffffffffffffffffffffffffffffffffffffff160361311e5761311984613d0e565b61315d565b8473ffffffffffffffffffffffffffffffffffffffff168173ffffffffffffffffffffffffffffffffffffffff161461315c5761315b8185613d52565b5b5b5f73ffffffffffffffffffffffffffffffffffffffff168573ffffffffffffffffffffffffffffffffffffffff160361319e5761319984613e9c565b6131dd565b8473ffffffffffffffffffffffffffffffffffffffff168173ffffffffffffffffffffffffffffffffffffffff16146131dc576131db8585613f5c565b5b5b809150509392505050565b6131f06130b5565b73ffffffffffffffffffffffffffffffffffffffff1661320e612aeb565b73ffffffffffffffffffffffffffffffffffffffff161461326d576132316130b5565b6040517f118cdaa70000000000000000000000000000000000000000000000000000000081526004016132649190614794565b60405180910390fd5b565b5f80600190505b601481116132d75761328784613fe0565b80519060200120836001015f8381526020019081526020015f206040516132ae9190615599565b6040518091039020036132c457809150506132dc565b80806132cf906150c3565b915050613276565b505f90505b92915050565b5f806132ed85614081565b6132f687614081565b61330091906155af565b90506133a660105f8681526020019081526020015f20600201805461332490614f0d565b80601f016020809104026020016040519081016040528092919081815260200182805461335090614f0d565b801561339b5780601f106133725761010080835404028352916020019161339b565b820191905f5260205f20905b81548152906001019060200180831161337e57829003601f168201915b505050505084614144565b156133bb57600a816133b891906155af565b90505b80915050949350505050565b5f600a5f9054906101000a900473ffffffffffffffffffffffffffffffffffffffff16905081600a5f6101000a81548173ffffffffffffffffffffffffffffffffffffffff021916908373ffffffffffffffffffffffffffffffffffffffff1602179055508173ffffffffffffffffffffffffffffffffffffffff168173ffffffffffffffffffffffffffffffffffffffff167f8be0079c531659141344cd1fd0a4f28419497f9722a3daafe3b4186f6b6457e060405160405180910390a35050565b5f73ffffffffffffffffffffffffffffffffffffffff168273ffffffffffffffffffffffffffffffffffffffff16036134fa57816040517f5b08ba180000000000000000000000000000000000000000000000000000000081526004016134f19190614794565b60405180910390fd5b8060055f8573ffffffffffffffffffffffffffffffffffffffff1673ffffffffffffffffffffffffffffffffffffffff1681526020019081526020015f205f8473ffffffffffffffffffffffffffffffffffffffff1673ffffffffffffffffffffffffffffffffffffffff1681526020019081526020015f205f6101000a81548160ff0219169083151502179055508173ffffffffffffffffffffffffffffffffffffffff168373ffffffffffffffffffffffffffffffffffffffff167f17307eab39ab6107e8899845ad3d59bd9653f200f220920489ca2b5937696c31836040516135e69190614634565b60405180910390a3505050565b61360c828260405180602001604052805f81525061415e565b5050565b5f8373ffffffffffffffffffffffffffffffffffffffff163b11156137bc578273ffffffffffffffffffffffffffffffffffffffff1663150b7a026136536130b5565b8685856040518563ffffffff1660e01b81526004016136759493929190615634565b6020604051808303815f875af19250505080156136b057506040513d601f19601f820116820180604052508101906136ad9190615692565b60015b613731573d805f81146136de576040519150601f19603f3d011682016040523d82523d5f602084013e6136e3565b606091505b505f81510361372957836040517f64a0ae920000000000000000000000000000000000000000000000000000000081526004016137209190614794565b60405180910390fd5b805181602001fd5b63150b7a0260e01b7bffffffffffffffffffffffffffffffffffffffffffffffffffffffff1916817bffffffffffffffffffffffffffffffffffffffffffffffffffffffff1916146137ba57836040517f64a0ae920000000000000000000000000000000000000000000000000000000081526004016137b19190614794565b60405180910390fd5b505b50505050565b606060405180602001604052805f815250905090565b60605f60016137e684614179565b0190505f8167ffffffffffffffff81111561380457613803614bc4565b5b6040519080825280601f01601f1916602001820160405280156138365781602001600182028036833780820191505090505b5090505f82602001820190505b600115613897578080600190039150507f3031323334353637383961626364656600000000000000000000000000000000600a86061a8153600a858161388c5761388b6156bd565b5b0494505f8503613843575b819350505050919050565b5f7f01ffc9a7000000000000000000000000000000000000000000000000000000007bffffffffffffffffffffffffffffffffffffffffffffffffffffffff1916827bffffffffffffffffffffffffffffffffffffffffffffffffffffffff1916149050919050565b5f60025f8381526020019081526020015f205f9054906101000a900473ffffffffffffffffffffffffffffffffffffffff169050919050565b808061397c57505f73ffffffffffffffffffffffffffffffffffffffff168273ffffffffffffffffffffffffffffffffffffffff1614155b15613aae575f61398b84612ff6565b90505f73ffffffffffffffffffffffffffffffffffffffff168373ffffffffffffffffffffffffffffffffffffffff16141580156139f557508273ffffffffffffffffffffffffffffffffffffffff168173ffffffffffffffffffffffffffffffffffffffff1614155b8015613a085750613a068184612e03565b155b15613a4a57826040517fa9fbf51f000000000000000000000000000000000000000000000000000000008152600401613a419190614794565b60405180910390fd5b8115613aac57838573ffffffffffffffffffffffffffffffffffffffff168273ffffffffffffffffffffffffffffffffffffffff167f8c5be1e5ebec7d5bd14f71427d1e84f3dd0314c0f7b2291e5b200ac8c7c3b92560405160405180910390a45b505b8360045f8581526020019081526020015f205f6101000a81548173ffffffffffffffffffffffffffffffffffffffff021916908373ffffffffffffffffffffffffffffffffffffffff16021790555050505050565b5f80613b0e8461390b565b90505f73ffffffffffffffffffffffffffffffffffffffff168373ffffffffffffffffffffffffffffffffffffffff1614613b4f57613b4e8184866142ca565b5b5f73ffffffffffffffffffffffffffffffffffffffff168173ffffffffffffffffffffffffffffffffffffffff1614613bda57613b8e5f855f80613944565b600160035f8373ffffffffffffffffffffffffffffffffffffffff1673ffffffffffffffffffffffffffffffffffffffff1681526020019081526020015f205f82825403925050819055505b5f73ffffffffffffffffffffffffffffffffffffffff168573ffffffffffffffffffffffffffffffffffffffff1614613c5957600160035f8773ffffffffffffffffffffffffffffffffffffffff1673ffffffffffffffffffffffffffffffffffffffff1681526020019081526020015f205f82825401925050819055505b8460025f8681526020019081526020015f205f6101000a81548173ffffffffffffffffffffffffffffffffffffffff021916908373ffffffffffffffffffffffffffffffffffffffff160217905550838573ffffffffffffffffffffffffffffffffffffffff168273ffffffffffffffffffffffffffffffffffffffff167fddf252ad1be2c89b69c2b068fc378daa952ba7f163c4a11628f55a4df523b3ef60405160405180910390a4809150509392505050565b60088054905060095f8381526020019081526020015f2081905550600881908060018154018082558091505060019003905f5260205f20015f909190919091505550565b5f613d5c83610fd7565b90505f60075f8481526020019081526020015f20549050818114613e33575f60065f8673ffffffffffffffffffffffffffffffffffffffff1673ffffffffffffffffffffffffffffffffffffffff1681526020019081526020015f205f8481526020019081526020015f205490508060065f8773ffffffffffffffffffffffffffffffffffffffff1673ffffffffffffffffffffffffffffffffffffffff1681526020019081526020015f205f8481526020019081526020015f20819055508160075f8381526020019081526020015f2081905550505b60075f8481526020019081526020015f205f905560065f8573ffffffffffffffffffffffffffffffffffffffff1673ffffffffffffffffffffffffffffffffffffffff1681526020019081526020015f205f8381526020019081526020015f205f905550505050565b5f6001600880549050613eaf919061510a565b90505f60095f8481526020019081526020015f205490505f60088381548110613edb57613eda614f99565b5b905f5260205f20015490508060088381548110613efb57613efa614f99565b5b905f5260205f2001819055508160095f8381526020019081526020015f208190555060095f8581526020019081526020015f205f90556008805480613f4357613f426156ea565b5b600190038181905f5260205f20015f9055905550505050565b5f6001613f6884610fd7565b613f72919061510a565b90508160065f8573ffffffffffffffffffffffffffffffffffffffff1673ffffffffffffffffffffffffffffffffffffffff1681526020019081526020015f205f8381526020019081526020015f20819055508060075f8481526020019081526020015f2081905550505050565b6060600f5f8381526020019081526020015f208054613ffe90614f0d565b80601f016020809104026020016040519081016040528092919081815260200182805461402a90614f0d565b80156140755780601f1061404c57610100808354040283529160200191614075565b820191905f5260205f20905b81548152906001019060200180831161405857829003601f168201915b50505050509050919050565b5f808203614091575f905061413f565b600182036140a2576019905061413f565b600282036140b3576012905061413f565b600382036140c457600f905061413f565b600482036140d557600c905061413f565b600582036140e657600a905061413f565b600682036140f7576008905061413f565b60078203614108576006905061413f565b60088203614119576004905061413f565b6009820361412a576002905061413f565b600a820361413b576001905061413f565b5f90505b919050565b5f8180519060200120838051906020012014905092915050565b614168838361438d565b6141745f848484613610565b505050565b5f805f90507a184f03e93ff9f4daa797ed6e38ed64bf6a1f01000000000000000083106141d5577a184f03e93ff9f4daa797ed6e38ed64bf6a1f01000000000000000083816141cb576141ca6156bd565b5b0492506040810190505b6d04ee2d6d415b85acef81000000008310614212576d04ee2d6d415b85acef81000000008381614208576142076156bd565b5b0492506020810190505b662386f26fc10000831061424157662386f26fc100008381614237576142366156bd565b5b0492506010810190505b6305f5e100831061426a576305f5e10083816142605761425f6156bd565b5b0492506008810190505b612710831061428f576127108381614285576142846156bd565b5b0492506004810190505b606483106142b257606483816142a8576142a76156bd565b5b0492506002810190505b600a83106142c1576001810190505b80915050919050565b6142d5838383614480565b614388575f73ffffffffffffffffffffffffffffffffffffffff168373ffffffffffffffffffffffffffffffffffffffff160361434957806040517f7e2732890000000000000000000000000000000000000000000000000000000081526004016143409190614824565b60405180910390fd5b81816040517f177e802f00000000000000000000000000000000000000000000000000000000815260040161437f929190614f72565b60405180910390fd5b505050565b5f73ffffffffffffffffffffffffffffffffffffffff168273ffffffffffffffffffffffffffffffffffffffff16036143fd575f6040517f64a0ae920000000000000000000000000000000000000000000000000000000081526004016143f49190614794565b60405180910390fd5b5f61440983835f6130ce565b90505f73ffffffffffffffffffffffffffffffffffffffff168173ffffffffffffffffffffffffffffffffffffffff161461447b575f6040517f73c6ac6e0000000000000000000000000000000000000000000000000000000081526004016144729190614794565b60405180910390fd5b505050565b5f8073ffffffffffffffffffffffffffffffffffffffff168373ffffffffffffffffffffffffffffffffffffffff161415801561453757508273ffffffffffffffffffffffffffffffffffffffff168473ffffffffffffffffffffffffffffffffffffffff1614806144f857506144f78484612e03565b5b8061453657508273ffffffffffffffffffffffffffffffffffffffff1661451e8361307c565b73ffffffffffffffffffffffffffffffffffffffff16145b5b90509392505050565b60405180606001604052806003905b606081526020019060019003908161454f5790505090565b6040518060600160405280600390602082028036833780820191505090505090565b5f604051905090565b5f80fd5b5f80fd5b5f7fffffffff0000000000000000000000000000000000000000000000000000000082169050919050565b6145ce8161459a565b81146145d8575f80fd5b50565b5f813590506145e9816145c5565b92915050565b5f6020828403121561460457614603614592565b5b5f614611848285016145db565b91505092915050565b5f8115159050919050565b61462e8161461a565b82525050565b5f6020820190506146475f830184614625565b92915050565b5f81519050919050565b5f82825260208201905092915050565b5f5b83811015614684578082015181840152602081019050614669565b5f8484015250505050565b5f601f19601f8301169050919050565b5f6146a98261464d565b6146b38185614657565b93506146c3818560208601614667565b6146cc8161468f565b840191505092915050565b5f6020820190508181035f8301526146ef818461469f565b905092915050565b5f819050919050565b614709816146f7565b8114614713575f80fd5b50565b5f8135905061472481614700565b92915050565b5f6020828403121561473f5761473e614592565b5b5f61474c84828501614716565b91505092915050565b5f73ffffffffffffffffffffffffffffffffffffffff82169050919050565b5f61477e82614755565b9050919050565b61478e81614774565b82525050565b5f6020820190506147a75f830184614785565b92915050565b6147b681614774565b81146147c0575f80fd5b50565b5f813590506147d1816147ad565b92915050565b5f80604083850312156147ed576147ec614592565b5b5f6147fa858286016147c3565b925050602061480b85828601614716565b9150509250929050565b61481e816146f7565b82525050565b5f6020820190506148375f830184614815565b92915050565b5f805f6060848603121561485457614853614592565b5b5f614861868287016147c3565b9350506020614872868287016147c3565b925050604061488386828701614716565b9150509250925092565b5f80604083850312156148a3576148a2614592565b5b5f6148b085828601614716565b92505060206148c185828601614716565b9150509250929050565b5f6080820190506148de5f830187614815565b6148eb6020830186614815565b81810360408301526148fd818561469f565b90508181036060830152614911818461469f565b905095945050505050565b5f60039050919050565b5f81905092915050565b5f819050919050565b5f82825260208201905092915050565b5f6149538261464d565b61495d8185614939565b935061496d818560208601614667565b6149768161468f565b840191505092915050565b5f61498c8383614949565b905092915050565b5f602082019050919050565b5f6149aa8261491c565b6149b48185614926565b9350836020820285016149c685614930565b805f5b85811015614a0157848403895281516149e28582614981565b94506149ed83614994565b925060208a019950506001810190506149c9565b50829750879550505050505092915050565b5f60039050919050565b5f81905092915050565b5f819050919050565b614a39816146f7565b82525050565b5f614a4a8383614a30565b60208301905092915050565b5f602082019050919050565b614a6b81614a13565b614a758184614a1d565b9250614a8082614a27565b805f5b83811015614ab0578151614a978782614a3f565b9650614aa283614a56565b925050600181019050614a83565b505050505050565b5f6080820190508181035f830152614ad081856149a0565b9050614adf6020830184614a62565b9392505050565b5f60208284031215614afb57614afa614592565b5b5f614b08848285016147c3565b91505092915050565b5f6060820190508181035f830152614b29818661469f565b9050614b386020830185614625565b8181036040830152614b4a818461469f565b9050949350505050565b614b5d8161461a565b8114614b67575f80fd5b50565b5f81359050614b7881614b54565b92915050565b5f8060408385031215614b9457614b93614592565b5b5f614ba1858286016147c3565b9250506020614bb285828601614b6a565b9150509250929050565b5f80fd5b5f80fd5b7f4e487b71000000000000000000000000000000000000000000000000000000005f52604160045260245ffd5b614bfa8261468f565b810181811067ffffffffffffffff82111715614c1957614c18614bc4565b5b80604052505050565b5f614c2b614589565b9050614c378282614bf1565b919050565b5f67ffffffffffffffff821115614c5657614c55614bc4565b5b614c5f8261468f565b9050602081019050919050565b828183375f83830152505050565b5f614c8c614c8784614c3c565b614c22565b905082815260208101848484011115614ca857614ca7614bc0565b5b614cb3848285614c6c565b509392505050565b5f82601f830112614ccf57614cce614bbc565b5b8135614cdf848260208601614c7a565b91505092915050565b5f805f8060808587031215614d0057614cff614592565b5b5f614d0d87828801614716565b9450506020614d1e87828801614716565b935050604085013567ffffffffffffffff811115614d3f57614d3e614596565b5b614d4b87828801614cbb565b925050606085013567ffffffffffffffff811115614d6c57614d6b614596565b5b614d7887828801614cbb565b91505092959194509250565b5f67ffffffffffffffff821115614d9e57614d9d614bc4565b5b614da78261468f565b9050602081019050919050565b5f614dc6614dc184614d84565b614c22565b905082815260208101848484011115614de257614de1614bc0565b5b614ded848285614c6c565b509392505050565b5f82601f830112614e0957614e08614bbc565b5b8135614e19848260208601614db4565b91505092915050565b5f805f8060808587031215614e3a57614e39614592565b5b5f614e47878288016147c3565b9450506020614e58878288016147c3565b9350506040614e6987828801614716565b925050606085013567ffffffffffffffff811115614e8a57614e89614596565b5b614e9687828801614df5565b91505092959194509250565b5f8060408385031215614eb857614eb7614592565b5b5f614ec5858286016147c3565b9250506020614ed6858286016147c3565b9150509250929050565b7f4e487b71000000000000000000000000000000000000000000000000000000005f52602260045260245ffd5b5f6002820490506001821680614f2457607f821691505b602082108103614f3757614f36614ee0565b5b50919050565b5f606082019050614f505f830186614785565b614f5d6020830185614815565b614f6a6040830184614785565b949350505050565b5f604082019050614f855f830185614785565b614f926020830184614815565b9392505050565b7f4e487b71000000000000000000000000000000000000000000000000000000005f52603260045260245ffd5b7f416c6c20726163657320636f6d706c65746564000000000000000000000000005f82015250565b5f614ffa601383614657565b915061500582614fc6565b602082019050919050565b5f6020820190508181035f83015261502781614fee565b9050919050565b7f5261636520616c726561647920636f6d706c65746564000000000000000000005f82015250565b5f615062601683614657565b915061506d8261502e565b602082019050919050565b5f6020820190508181035f83015261508f81615056565b9050919050565b7f4e487b71000000000000000000000000000000000000000000000000000000005f52601160045260245ffd5b5f6150cd826146f7565b91507fffffffffffffffffffffffffffffffffffffffffffffffffffffffffffffffff82036150ff576150fe615096565b5b600182019050919050565b5f615114826146f7565b915061511f836146f7565b925082820390508181111561513757615136615096565b5b92915050565b5f615147826146f7565b91505f820361515957615158615096565b5b600182039050919050565b5f819050815f5260205f209050919050565b5f6020601f8301049050919050565b5f82821b905092915050565b5f600883026151c07fffffffffffffffffffffffffffffffffffffffffffffffffffffffffffffffff82615185565b6151ca8683615185565b95508019841693508086168417925050509392505050565b5f819050919050565b5f6152056152006151fb846146f7565b6151e2565b6146f7565b9050919050565b5f819050919050565b61521e836151eb565b61523261522a8261520c565b848454615191565b825550505050565b5f90565b61524661523a565b615251818484615215565b505050565b5b81811015615274576152695f8261523e565b600181019050615257565b5050565b601f8211156152b95761528a81615164565b61529384615176565b810160208510156152a2578190505b6152b66152ae85615176565b830182615256565b50505b505050565b5f82821c905092915050565b5f6152d95f19846008026152be565b1980831691505092915050565b5f6152f183836152ca565b9150826002028217905092915050565b61530a8261464d565b67ffffffffffffffff81111561532357615322614bc4565b5b61532d8254614f0d565b615338828285615278565b5f60209050601f831160018114615369575f8415615357578287015190505b61536185826152e6565b8655506153c8565b601f19841661537786615164565b5f5b8281101561539e57848901518255600182019150602085019450602081019050615379565b868310156153bb57848901516153b7601f8916826152ca565b8355505b6001600288020188555050505b505050505050565b7f4d6178696d756d207465616d73207265616368656400000000000000000000005f82015250565b5f615404601583614657565b915061540f826153d0565b602082019050919050565b5f6020820190508181035f830152615431816153f8565b9050919050565b7f426f74682064726976657273206d75737420626520646966666572656e7400005f82015250565b5f61546c601e83614657565b915061547782615438565b602082019050919050565b5f6020820190508181035f83015261549981615460565b9050919050565b5f81905092915050565b5f6154b48261464d565b6154be81856154a0565b93506154ce818560208601614667565b80840191505092915050565b5f6154e582856154aa565b91506154f182846154aa565b91508190509392505050565b5f81905092915050565b5f819050815f5260205f209050919050565b5f815461552581614f0d565b61552f81866154fd565b9450600182165f8114615549576001811461555e57615590565b60ff1983168652811515820286019350615590565b61556785615507565b5f5b8381101561558857815481890152600182019150602081019050615569565b838801955050505b50505092915050565b5f6155a48284615519565b915081905092915050565b5f6155b9826146f7565b91506155c4836146f7565b92508282019050808211156155dc576155db615096565b5b92915050565b5f81519050919050565b5f82825260208201905092915050565b5f615606826155e2565b61561081856155ec565b9350615620818560208601614667565b6156298161468f565b840191505092915050565b5f6080820190506156475f830187614785565b6156546020830186614785565b6156616040830185614815565b818103606083015261567381846155fc565b905095945050505050565b5f8151905061568c816145c5565b92915050565b5f602082840312156156a7576156a6614592565b5b5f6156b48482850161567e565b91505092915050565b7f4e487b71000000000000000000000000000000000000000000000000000000005f52601260045260245ffd5b7f4e487b71000000000000000000000000000000000000000000000000000000005f52603160045260245ffdfea2646970667358221220d35a0bc43ffdd029800b2a4afcc4c9c8dd71da58ceb5f34324fd8c0c99d8354f64736f6c63430008140033",
  "immutableReferences": {},
  "source": "// SPDX-License-Identifier: MIT\r\npragma solidity ^0.8.20;\r\n\r\nimport \"@openzeppelin/contracts/token/ERC721/extensions/ERC721Enumerable.sol\";\r\nimport \"@openzeppelin/contracts/access/Ownable.sol\";\r\n\r\ncontract FantasyF1Contract is ERC721Enumerable, Ownable(msg.sender) {\r\n\r\n    uint256 public constant MAX_TEAMS = 10000;\r\n    uint256 public constant TOTAL_RACES = 5;\r\n\r\n    uint256 public nextRaceId = 1;\r\n    uint256 public totalTeams = 0;\r\n\r\n    mapping(uint256 => Race) public races;\r\n    mapping(uint256 => mapping(uint256 => uint256)) public raceScores; // raceId => teamId => score\r\n\r\n    mapping(uint256 => string) public driverNames;\r\n\r\n    struct Race {\r\n        string raceName;\r\n        mapping(uint256 => string) results; // Position => Driver Name\r\n        bool raceCompleted;\r\n        string fastestPitstopTeam;\r\n    }\r\n\r\n    struct Team {\r\n        uint256 driver1;\r\n        uint256 driver2;\r\n        string constructorTeam;\r\n        string teamName;\r\n    }\r\n\r\n    mapping(uint256 => Team) public teams;\r\n\r\n    constructor() ERC721(\"FantasyF1Team\", \"F1T\") {}\r\n\r\n    function initialize() external onlyOwner {\r\n        // Initialize hardcoded driver names here\r\n        driverNames[1] = \"Lewis\";\r\n        driverNames[2] = \"Max\";\r\n        driverNames[3] = \"Lando\";\r\n        driverNames[4] = \"Oscar\";\r\n        driverNames[5] = \"Carlos\";\r\n        driverNames[6] = \"Kevin\";\r\n        driverNames[7] = \"Daniel\";\r\n        driverNames[8] = \"Charles\";\r\n        driverNames[9] = \"Alex\";\r\n        driverNames[10] = \"George\";\r\n        driverNames[11] = \"Yuki\";\r\n        driverNames[12] = \"Fernando\";\r\n        driverNames[13] = \"Lance\";\r\n        driverNames[14] = \"Gasly\";\r\n        driverNames[15] = \"Esteban\";\r\n        driverNames[16] = \"Niko\";\r\n        driverNames[17] = \"Logan\";\r\n        driverNames[18] = \"Zhou\";\r\n        driverNames[19] = \"Bottas\";\r\n        driverNames[20] = \"Sergio\";\r\n\r\n\r\n\r\n        races[nextRaceId].raceName = \"Australian Grand Prix\";\r\n        races[nextRaceId].raceCompleted = false;\r\n        races[nextRaceId].fastestPitstopTeam = \"McLaren\";\r\n        races[nextRaceId].results[1] = \"Lewis\";\r\n        races[nextRaceId].results[2] = \"Max\";\r\n        races[nextRaceId].results[3] = \"Lando\";\r\n        races[nextRaceId].results[4] = \"Oscar\";\r\n        races[nextRaceId].results[5] = \"Carlos\";\r\n        races[nextRaceId].results[6] = \"Kevin\";\r\n        races[nextRaceId].results[7] = \"Daniel\";\r\n        races[nextRaceId].results[8] = \"Charles\";\r\n        races[nextRaceId].results[9] = \"Alex\";\r\n        races[nextRaceId].results[10] = \"George\";\r\n        races[nextRaceId].results[11] = \"Yuki\";\r\n        races[nextRaceId].results[12] = \"Fernando\";\r\n        races[nextRaceId].results[13] = \"Lance\";\r\n        races[nextRaceId].results[14] = \"Gasly\";\r\n        races[nextRaceId].results[15] = \"Esteban\";\r\n        races[nextRaceId].results[16] = \"Niko\";\r\n        races[nextRaceId].results[17] = \"Logan\";\r\n        races[nextRaceId].results[18] = \"Zhou\";\r\n        races[nextRaceId].results[19] = \"Bottas\";\r\n        races[nextRaceId].results[20] = \"Sergio\";\r\n\r\n        nextRaceId++;\r\n\r\n\r\n\r\n        races[nextRaceId].raceName = \"Bahrain Grand Prix\";\r\n        races[nextRaceId].raceCompleted = false;\r\n        races[nextRaceId].fastestPitstopTeam = \"Red Bull Racing\";\r\n        races[nextRaceId].results[1] = \"Oscar\";\r\n        races[nextRaceId].results[2] = \"Max\";\r\n        races[nextRaceId].results[3] = \"Lando\";\r\n        races[nextRaceId].results[4] = \"Lewis\";\r\n        races[nextRaceId].results[5] = \"Carlos\";\r\n        races[nextRaceId].results[6] = \"Kevin\";\r\n        races[nextRaceId].results[7] = \"Daniel\";\r\n        races[nextRaceId].results[8] = \"Charles\";\r\n        races[nextRaceId].results[9] = \"Alex\";\r\n        races[nextRaceId].results[10] = \"George\";\r\n        races[nextRaceId].results[11] = \"Yuki\";\r\n        races[nextRaceId].results[12] = \"Fernando\";\r\n        races[nextRaceId].results[13] = \"Lance\";\r\n        races[nextRaceId].results[14] = \"Gasly\";\r\n        races[nextRaceId].results[15] = \"Esteban\";\r\n        races[nextRaceId].results[16] = \"Niko\";\r\n        races[nextRaceId].results[17] = \"Logan\";\r\n        races[nextRaceId].results[18] = \"Zhou\";\r\n        races[nextRaceId].results[19] = \"Bottas\";\r\n        races[nextRaceId].results[20] = \"Sergio\";\r\n\r\n        nextRaceId++;\r\n\r\n\r\n        nextRaceId = 1;\r\n    }\r\n\r\n    function createTeam(uint256 driver1, uint256 driver2, string memory constructorteam, string memory teamName) external {\r\n        require(totalTeams < MAX_TEAMS, \"Maximum teams reached\");\r\n        require(driver1 != driver2, \"Both drivers must be different\");\r\n\r\n        teams[totalTeams] = Team({\r\n            driver1: driver1,\r\n            driver2: driver2,\r\n            constructorTeam: constructorteam,\r\n            teamName: teamName\r\n        });\r\n\r\n        _safeMint(msg.sender, totalTeams);\r\n        totalTeams++;\r\n    }\r\n\r\n    function startRace() external onlyOwner {\r\n        require(nextRaceId <= TOTAL_RACES, \"All races completed\");\r\n\r\n        Race storage currentRace = races[nextRaceId];\r\n        require(!currentRace.raceCompleted, \"Race already completed\");\r\n\r\n        for (uint256 i = 0; i < totalTeams; i++) {\r\n            uint256 teamId = i;\r\n\r\n            uint256 driver1Position = findDriverPosition(teams[teamId].driver1, currentRace);\r\n            uint256 driver2Position = findDriverPosition(teams[teamId].driver2, currentRace);\r\n\r\n            uint256 score = calculateScore(driver1Position, driver2Position, teamId, currentRace.fastestPitstopTeam);\r\n            raceScores[nextRaceId][teamId] = score;\r\n        }\r\n\r\n        currentRace.raceCompleted = true;\r\n        nextRaceId++;\r\n    }\r\n\r\n    function findDriverPosition(uint256 driverId, Race storage race) internal view returns (uint256) {\r\n        for (uint256 i = 1; i <= 20; i++) {\r\n            if (keccak256(bytes(race.results[i])) == keccak256(bytes(getDriverName(driverId)))) {\r\n                return i;\r\n            }\r\n        }\r\n        return 0; // Driver did not finish within top 20\r\n    }\r\n\r\n    function calculateScore(uint256 driver1Position, uint256 driver2Position, uint256 teamId, string memory fastestPitstopTeam) internal view returns (uint256) {\r\n        uint256 score = calculateDriverScore(driver1Position) + calculateDriverScore(driver2Position);\r\n\r\n        if (isFastestPitstopTeam(teams[teamId].constructorTeam, fastestPitstopTeam)) {\r\n            score += 10;\r\n        }\r\n\r\n        return score;\r\n    }\r\n\r\n    function calculateDriverScore(uint256 position) internal pure returns (uint256) {\r\n        if (position == 0) {\r\n            // Driver did not finish\r\n            return 0;\r\n        } else if (position == 1) {\r\n            return 25;\r\n        } else if (position == 2) {\r\n            return 18;\r\n        } else if (position == 3) {\r\n            return 15;\r\n        } else if (position == 4) {\r\n            return 12;\r\n        } else if (position == 5) {\r\n            return 10;\r\n        } else if (position == 6) {\r\n            return 8;\r\n        } else if (position == 7) {\r\n            return 6;\r\n        } else if (position == 8) {\r\n            return 4;\r\n        } else if (position == 9) {\r\n            return 2;\r\n        } else if (position == 10) {\r\n            return 1;\r\n        }\r\n\r\n        // Positions 11-20 and DNF\r\n        return 0;\r\n    }  \r\n\r\n    function isFastestPitstopTeam(string memory teamName, string memory fastestPitstopTeam) internal pure returns (bool) {\r\n        return keccak256(bytes(teamName)) == keccak256(bytes(fastestPitstopTeam));\r\n    }\r\n\r\n\r\n    function getDriverName(uint256 driverId) internal view returns (string memory) {\r\n        return driverNames[driverId];\r\n    }\r\n\r\n    // function getLeaderboard() external view returns (uint256[3] memory teamIds, uint256[3] memory scores) {\r\n    //     uint256[3] memory topScores;\r\n    //     uint256[3] memory topTeamIds;\r\n\r\n    //     for (uint256 i = 0; i < totalTeams; i++) {\r\n    //         uint256 score = raceScores[nextRaceId - 1][i];\r\n            \r\n    //         for (uint256 j = 0; j < 3; j++) {\r\n    //             if (score > topScores[j]) {\r\n    //                 for (uint256 k = 2; k > j; k--) {\r\n    //                     topScores[k] = topScores[k - 1];\r\n    //                     topTeamIds[k] = topTeamIds[k - 1];\r\n    //                 }\r\n    //                 topScores[j] = score;\r\n    //                 topTeamIds[j] = i;\r\n    //                 break;\r\n    //             }\r\n    //         }\r\n    //     }\r\n\r\n    //     teamIds = topTeamIds;\r\n    //     scores = topScores;\r\n    // }\r\n\r\n    function getLeaderboard() external view returns (string[3] memory teamNames, uint256[3] memory scores) {\r\n        uint256[3] memory topScores;\r\n        uint256[3] memory topTeamIds;\r\n\r\n        for (uint256 i = 0; i < totalTeams; i++) {\r\n            uint256 score = raceScores[nextRaceId - 1][i];\r\n            \r\n            for (uint256 j = 0; j < 3; j++) {\r\n                if (score > topScores[j]) {\r\n                    for (uint256 k = 2; k > j; k--) {\r\n                        topScores[k] = topScores[k - 1];\r\n                        topTeamIds[k] = topTeamIds[k - 1];\r\n                    }\r\n                    topScores[j] = score;\r\n                    topTeamIds[j] = i;\r\n                    break;\r\n                }\r\n            }\r\n        }\r\n\r\n        for (uint256 i = 0; i < 3; i++) {\r\n            teamNames[i] = teams[topTeamIds[i]].teamName;\r\n            scores[i] = topScores[i];\r\n        }\r\n    }\r\n\r\n}\r\n",
  "sourcePath": "C:\\Users\\neave\\Documents\\GitHub\\BoxBlocks\\contracts\\FantasyF1Contract.sol",
  "compiler": {
    "name": "solc",
    "version": "0.8.20+commit.a1b79de6.Emscripten.clang"
  },
  "schemaVersion": "3.4.16",
  "updatedAt": "2023-10-13T17:56:00.739Z",
  "devdoc": {
    "errors": {
      "ERC721EnumerableForbiddenBatchMint()": [
        {
          "details": "Batch mint is not allowed."
        }
      ],
      "ERC721IncorrectOwner(address,uint256,address)": [
        {
          "details": "Indicates an error related to the ownership over a particular token. Used in transfers.",
          "params": {
            "owner": "Address of the current owner of a token.",
            "sender": "Address whose tokens are being transferred.",
            "tokenId": "Identifier number of a token."
          }
        }
      ],
      "ERC721InsufficientApproval(address,uint256)": [
        {
          "details": "Indicates a failure with the `operator`s approval. Used in transfers.",
          "params": {
            "operator": "Address that may be allowed to operate on tokens without being their owner.",
            "tokenId": "Identifier number of a token."
          }
        }
      ],
      "ERC721InvalidApprover(address)": [
        {
          "details": "Indicates a failure with the `approver` of a token to be approved. Used in approvals.",
          "params": {
            "approver": "Address initiating an approval operation."
          }
        }
      ],
      "ERC721InvalidOperator(address)": [
        {
          "details": "Indicates a failure with the `operator` to be approved. Used in approvals.",
          "params": {
            "operator": "Address that may be allowed to operate on tokens without being their owner."
          }
        }
      ],
      "ERC721InvalidOwner(address)": [
        {
          "details": "Indicates that an address can't be an owner. For example, `address(0)` is a forbidden owner in EIP-20. Used in balance queries.",
          "params": {
            "owner": "Address of the current owner of a token."
          }
        }
      ],
      "ERC721InvalidReceiver(address)": [
        {
          "details": "Indicates a failure with the token `receiver`. Used in transfers.",
          "params": {
            "receiver": "Address to which tokens are being transferred."
          }
        }
      ],
      "ERC721InvalidSender(address)": [
        {
          "details": "Indicates a failure with the token `sender`. Used in transfers.",
          "params": {
            "sender": "Address whose tokens are being transferred."
          }
        }
      ],
      "ERC721NonexistentToken(uint256)": [
        {
          "details": "Indicates a `tokenId` whose `owner` is the zero address.",
          "params": {
            "tokenId": "Identifier number of a token."
          }
        }
      ],
      "ERC721OutOfBoundsIndex(address,uint256)": [
        {
          "details": "An `owner`'s token query was out of bounds for `index`. NOTE: The owner being `address(0)` indicates a global out of bounds index."
        }
      ],
      "OwnableInvalidOwner(address)": [
        {
          "details": "The owner is not a valid owner account. (eg. `address(0)`)"
        }
      ],
      "OwnableUnauthorizedAccount(address)": [
        {
          "details": "The caller account is not authorized to perform an operation."
        }
      ]
    },
    "events": {
      "Approval(address,address,uint256)": {
        "details": "Emitted when `owner` enables `approved` to manage the `tokenId` token."
      },
      "ApprovalForAll(address,address,bool)": {
        "details": "Emitted when `owner` enables or disables (`approved`) `operator` to manage all of its assets."
      },
      "Transfer(address,address,uint256)": {
        "details": "Emitted when `tokenId` token is transferred from `from` to `to`."
      }
    },
    "kind": "dev",
    "methods": {
      "approve(address,uint256)": {
        "details": "See {IERC721-approve}."
      },
      "balanceOf(address)": {
        "details": "See {IERC721-balanceOf}."
      },
      "getApproved(uint256)": {
        "details": "See {IERC721-getApproved}."
      },
      "isApprovedForAll(address,address)": {
        "details": "See {IERC721-isApprovedForAll}."
      },
      "name()": {
        "details": "See {IERC721Metadata-name}."
      },
      "owner()": {
        "details": "Returns the address of the current owner."
      },
      "ownerOf(uint256)": {
        "details": "See {IERC721-ownerOf}."
      },
      "renounceOwnership()": {
        "details": "Leaves the contract without owner. It will not be possible to call `onlyOwner` functions. Can only be called by the current owner. NOTE: Renouncing ownership will leave the contract without an owner, thereby disabling any functionality that is only available to the owner."
      },
      "safeTransferFrom(address,address,uint256)": {
        "details": "See {IERC721-safeTransferFrom}."
      },
      "safeTransferFrom(address,address,uint256,bytes)": {
        "details": "See {IERC721-safeTransferFrom}."
      },
      "setApprovalForAll(address,bool)": {
        "details": "See {IERC721-setApprovalForAll}."
      },
      "supportsInterface(bytes4)": {
        "details": "See {IERC165-supportsInterface}."
      },
      "symbol()": {
        "details": "See {IERC721Metadata-symbol}."
      },
      "tokenByIndex(uint256)": {
        "details": "See {IERC721Enumerable-tokenByIndex}."
      },
      "tokenOfOwnerByIndex(address,uint256)": {
        "details": "See {IERC721Enumerable-tokenOfOwnerByIndex}."
      },
      "tokenURI(uint256)": {
        "details": "See {IERC721Metadata-tokenURI}."
      },
      "totalSupply()": {
        "details": "See {IERC721Enumerable-totalSupply}."
      },
      "transferFrom(address,address,uint256)": {
        "details": "See {IERC721-transferFrom}."
      },
      "transferOwnership(address)": {
        "details": "Transfers ownership of the contract to a new account (`newOwner`). Can only be called by the current owner."
      }
    },
    "version": 1
  },
  "userdoc": {
    "kind": "user",
    "methods": {},
    "version": 1
  }
}